{
  "contracts/MetaverseFund.sol": {
    "MetaverseFund": {
      "abi": [
        {
          "inputs": [],
          "stateMutability": "nonpayable",
          "type": "constructor"
        },
        {
          "anonymous": false,
          "inputs": [
            {
              "indexed": true,
              "internalType": "address",
              "name": "from",
              "type": "address"
            },
            {
              "indexed": true,
              "internalType": "address",
              "name": "to",
              "type": "address"
            },
            {
              "indexed": false,
              "internalType": "uint256",
              "name": "tokensWithdrawn",
              "type": "uint256"
            },
            {
              "indexed": false,
              "internalType": "uint256",
              "name": "etherSent",
              "type": "uint256"
            }
          ],
          "name": "FailedWithdrawal",
          "type": "event"
        },
        {
          "anonymous": false,
          "inputs": [
            {
              "indexed": false,
              "internalType": "address",
              "name": "token",
              "type": "address"
            }
          ],
          "name": "MetaverseFundTokenAdded",
          "type": "event"
        },
        {
          "anonymous": false,
          "inputs": [
            {
              "indexed": true,
              "internalType": "address",
              "name": "previousOwner",
              "type": "address"
            },
            {
              "indexed": true,
              "internalType": "address",
              "name": "newOwner",
              "type": "address"
            }
          ],
          "name": "OwnershipTransferred",
          "type": "event"
        },
        {
          "anonymous": false,
          "inputs": [
            {
              "indexed": false,
              "internalType": "address",
              "name": "account",
              "type": "address"
            }
          ],
          "name": "Paused",
          "type": "event"
        },
        {
          "anonymous": false,
          "inputs": [
            {
              "indexed": false,
              "internalType": "uint256",
              "name": "numerator",
              "type": "uint256"
            },
            {
              "indexed": false,
              "internalType": "uint256",
              "name": "denominator",
              "type": "uint256"
            }
          ],
          "name": "PriceUpdate",
          "type": "event"
        },
        {
          "anonymous": false,
          "inputs": [
            {
              "indexed": true,
              "internalType": "address",
              "name": "from",
              "type": "address"
            },
            {
              "indexed": true,
              "internalType": "address",
              "name": "to",
              "type": "address"
            },
            {
              "indexed": false,
              "internalType": "uint256",
              "name": "tokensPurchased",
              "type": "uint256"
            },
            {
              "indexed": false,
              "internalType": "uint256",
              "name": "etherReceived",
              "type": "uint256"
            }
          ],
          "name": "Purchase",
          "type": "event"
        },
        {
          "anonymous": false,
          "inputs": [
            {
              "indexed": false,
              "internalType": "address",
              "name": "account",
              "type": "address"
            }
          ],
          "name": "Unpaused",
          "type": "event"
        },
        {
          "anonymous": false,
          "inputs": [
            {
              "indexed": true,
              "internalType": "address",
              "name": "from",
              "type": "address"
            },
            {
              "indexed": true,
              "internalType": "address",
              "name": "to",
              "type": "address"
            },
            {
              "indexed": false,
              "internalType": "uint256",
              "name": "tokensWithdrawn",
              "type": "uint256"
            },
            {
              "indexed": false,
              "internalType": "uint256",
              "name": "etherSent",
              "type": "uint256"
            }
          ],
          "name": "Withdrawal",
          "type": "event"
        },
        {
          "inputs": [],
          "name": "PURCHASE_FEE",
          "outputs": [
            {
              "internalType": "uint256",
              "name": "",
              "type": "uint256"
            }
          ],
          "stateMutability": "view",
          "type": "function"
        },
        {
          "inputs": [],
          "name": "WITHDRAW_FEE",
          "outputs": [
            {
              "internalType": "uint256",
              "name": "",
              "type": "uint256"
            }
          ],
          "stateMutability": "view",
          "type": "function"
        },
        {
          "inputs": [
            {
              "internalType": "address",
              "name": "_token",
              "type": "address"
            }
          ],
          "name": "addToken",
          "outputs": [],
          "stateMutability": "nonpayable",
          "type": "function"
        },
        {
          "inputs": [
            {
              "internalType": "address",
              "name": "_to",
              "type": "address"
            }
          ],
          "name": "buyShares",
          "outputs": [],
          "stateMutability": "payable",
          "type": "function"
        },
        {
          "inputs": [
            {
              "internalType": "bytes32",
              "name": "c__0x5eaf4498",
              "type": "bytes32"
            }
          ],
          "name": "c_0x5eaf4498",
          "outputs": [],
          "stateMutability": "pure",
          "type": "function"
        },
        {
          "inputs": [
            {
              "internalType": "bytes32",
              "name": "c__0x87b593dd",
              "type": "bytes32"
            }
          ],
          "name": "c_0x87b593dd",
          "outputs": [],
          "stateMutability": "pure",
          "type": "function"
        },
        {
          "inputs": [],
          "name": "currentPrice",
          "outputs": [
            {
              "internalType": "uint256",
              "name": "numerator",
              "type": "uint256"
            },
            {
              "internalType": "uint256",
              "name": "denominator",
              "type": "uint256"
            }
          ],
          "stateMutability": "view",
          "type": "function"
        },
        {
          "inputs": [],
          "name": "owner",
          "outputs": [
            {
              "internalType": "address",
              "name": "",
              "type": "address"
            }
          ],
          "stateMutability": "view",
          "type": "function"
        },
        {
          "inputs": [],
          "name": "paused",
          "outputs": [
            {
              "internalType": "bool",
              "name": "",
              "type": "bool"
            }
          ],
          "stateMutability": "view",
          "type": "function"
        },
        {
          "inputs": [],
          "name": "renounceOwnership",
          "outputs": [],
          "stateMutability": "nonpayable",
          "type": "function"
        },
        {
          "inputs": [
            {
              "internalType": "address payable",
              "name": "_to",
              "type": "address"
            },
            {
              "internalType": "uint256",
              "name": "_value",
              "type": "uint256"
            }
          ],
          "name": "sellShares",
          "outputs": [],
          "stateMutability": "nonpayable",
          "type": "function"
        },
        {
          "inputs": [],
          "name": "token",
          "outputs": [
            {
              "internalType": "address",
              "name": "",
              "type": "address"
            }
          ],
          "stateMutability": "view",
          "type": "function"
        },
        {
          "inputs": [
            {
              "internalType": "address",
              "name": "newOwner",
              "type": "address"
            }
          ],
          "name": "transferOwnership",
          "outputs": [],
          "stateMutability": "nonpayable",
          "type": "function"
        },
        {
          "inputs": [
            {
              "internalType": "uint256",
              "name": "_numerator",
              "type": "uint256"
            },
            {
              "internalType": "uint256",
              "name": "_denominator",
              "type": "uint256"
            }
          ],
          "name": "updatePrice",
          "outputs": [],
          "stateMutability": "nonpayable",
          "type": "function"
        }
      ],
      "evm": {
        "bytecode": {
          "linkReferences": {},
          "object": "60806040523480156200001157600080fd5b506200003262000026620000ba60201b60201c565b620000c260201b60201c565b620000667f32dc0c5d0fdfd59330c363aa699cad528e3ece02fdb3114c8b3554ebee833bc860001b6200018660201b60201c565b60008060146101000a81548160ff021916908315150217905550620000b47fca95a30f5186ff2f8d5eeca276224b3d72a1f0edf0b3622173c5a00942285da560001b6200018960201b60201c565b6200018c565b600033905090565b60008060009054906101000a900473ffffffffffffffffffffffffffffffffffffffff169050816000806101000a81548173ffffffffffffffffffffffffffffffffffffffff021916908373ffffffffffffffffffffffffffffffffffffffff1602179055508173ffffffffffffffffffffffffffffffffffffffff168173ffffffffffffffffffffffffffffffffffffffff167f8be0079c531659141344cd1fd0a4f28419497f9722a3daafe3b4186f6b6457e060405160405180910390a35050565b50565b50565b612742806200019c6000396000f3fe6080604052600436106100dd5760003560e01c80639bff5ddb1161007f578063b680a37211610059578063b680a37214610268578063d48bfca714610291578063f2fde38b146102ba578063fc0c546a146102e3576100dd565b80639bff5ddb146101e85780639d1b464a14610213578063b51d05341461023f576100dd565b80635c975abb116100bb5780635c975abb14610152578063715018a61461017d57806382367b2d146101945780638da5cb5b146101bd576100dd565b80630ac2e88b146100e25780631874979b1461010b5780634c85b42514610136575b600080fd5b3480156100ee57600080fd5b5061010960048036038101906101049190612220565b61030e565b005b34801561011757600080fd5b50610120610311565b60405161012d9190612266565b60405180910390f35b610150600480360381019061014b91906122df565b610316565b005b34801561015e57600080fd5b50610167610b87565b6040516101749190612327565b60405180910390f35b34801561018957600080fd5b50610192610b9d565b005b3480156101a057600080fd5b506101bb60048036038101906101b6919061236e565b610c25565b005b3480156101c957600080fd5b506101d2610fa2565b6040516101df91906123bd565b60405180910390f35b3480156101f457600080fd5b506101fd610fcb565b60405161020a9190612266565b60405180910390f35b34801561021f57600080fd5b50610228610fd0565b6040516102369291906123d8565b60405180910390f35b34801561024b57600080fd5b506102666004803603810190610261919061243f565b610fe2565b005b34801561027457600080fd5b5061028f600480360381019061028a9190612220565b611acd565b005b34801561029d57600080fd5b506102b860048036038101906102b391906122df565b611ad0565b005b3480156102c657600080fd5b506102e160048036038101906102dc91906122df565b611fcf565b005b3480156102ef57600080fd5b506102f86120c7565b60405161030591906123bd565b60405180910390f35b50565b606181565b6103427f3550c524f2cb10854772db13a5fd866438f56079ade736e3a18a88f928a7eb8960001b61030e565b61036e7f956754f245df61750b3ff715fc1c3460cbbbfc8eb4ccb6d16996c73fc36befd960001b61030e565b61039a7f2d6757ab31c0ba80480bf5f6066feadcbb05d70cbc7e1dc812aeec1ea79bd0b260001b61030e565b6103c67f9b0eaa1a071934308c07b53d6bf020aaacf5da389ea02a17528b92a6dcd1378260001b61030e565b600073ffffffffffffffffffffffffffffffffffffffff16600260009054906101000a900473ffffffffffffffffffffffffffffffffffffffff1673ffffffffffffffffffffffffffffffffffffffff16141561042257600080fd5b61044e7f218bd9c0e7a8096d437f795c416f6143ccbbbbdcf2544b2c874bf58270c6c98060001b61030e565b61047a7f71dedd22c6d2caca739f5541b4e33a1f0b25614a7ba4a750ecd1b48e39b7cf7f60001b61030e565b610482610b87565b156104c2576040517f08c379a00000000000000000000000000000000000000000000000000000000081526004016104b9906124dc565b60405180910390fd5b6104ee7f796d77fcf562295f0f10d6f508906510f7000443f4d4429131b215e40c297ac360001b61030e565b61051a7f3a80db5f6526977462185440b9cd024327e63ab9f5308142bb923b7c7cb5387960001b61030e565b6105467f07a2ca20d819a66be47939373a7468d9dd1829f1dcda642da8dc6e5722013fa160001b61030e565b6105727fb69812bf7f3ca6baf544da48c82b0dc80cd227862e74b80223529eae0aca373560001b61030e565b6000600360000154141561058557600080fd5b6105b17fb32a86dac938085fea28a190aadaaef27a4b742d08d1cc1e9c37f3791b068f2460001b61030e565b6105dd7f90eb1d34e2c916bf1a6d941f8f5052909c1462bf83b8122cd339976169fdf3d560001b61030e565b6106097f6cff9860564cd4da66c70a955ecb9db075a41956fce6d40a7919ad9cd900fb1260001b61030e565b6106357f55b878b7b53dc1adf9370e2115726b28580826d40968c00c72cc977aabf2b36460001b61030e565b6000600360010154141561064857600080fd5b6106747fecda94b4763151d2030d1bbab75ca430d643b0adb4b704349e072bf04550d1ac60001b61030e565b6106a07f0ded886e6779651c0029827db614b0119f2407ed0924d065c08037eed4b099ff60001b61030e565b806106cd7f2f8f4f3392bf5bb5a62f72a84576a1d7c68ffef17e09683aa95c71173d11f84660001b61030e565b6106f97f98b2b987b3fb75496a5443b7203b1b450c502d32cbe6764cdc7d4998bf8a234060001b61030e565b6107257fa0576c061658faf0a7e14d3a6d4c5af996418df47a022fb2e8d217e775bc4a7f60001b61030e565b6107517fd654e2ce9b4867acf9c778540e2c464bc9bfa1ae5cf3925d06981307e72dc2d360001b61030e565b600073ffffffffffffffffffffffffffffffffffffffff168173ffffffffffffffffffffffffffffffffffffffff16141561078b57600080fd5b6107b77f65e8faeb08fb0ecc4568afc1f6e5e49d9645212c8aa861803350ed7d3fc5c30960001b61030e565b6107e37fe58beaa39c1ac4f56de9b44eb1c0b85817e6bf2b0439dcf21b73fe1857cea3fd60001b61030e565b61080f7fd2a94c4286628eeaee17ed26eed0920acc20c79a914145d19ec7c35c1db369e460001b61030e565b61083b7f596d02d671e696aa875438f42c11ed15dc211d3477fa9ade5c9e682424ba494460001b61030e565b6108677f92ed6bd842e7759c0c76cd10bcf1c305e484599bcf9406593d57a6244f79193a60001b61030e565b6108937fc4084eb0945ba7c7d5ff34935978b7b79d5ffe5d0d045328b23305b66ff89a4560001b61030e565b60003414156108a157600080fd5b6108cd7f73d43c7b43ab0ed8413aab9dc3f59d963e3f6527445f87ef68dc83d23a49735060001b61030e565b6108f97ffbfdfb4a0721eb2514e9a57f679549665941729a0118137b411659b65c09d2aa60001b61030e565b6109257fd29db7349a4ffd4ebcc7a96744633ff6bf4d7547c1168eac80604636dc39e3e960001b61030e565b6000610956600360010154610948600360000154346120ed90919063ffffffff16565b61210390919063ffffffff16565b90506109847fe678dfb05b6740e084c0cda987e7845450bd4154b03115cb130fdbf70afcc66460001b61030e565b6109b07f806e0ea02cdc04a61b284aaac27641b4ab0ee4560948d39e9d6ab0a0c6095f5360001b61030e565b60006109d960646109cb6061856120ed90919063ffffffff16565b61210390919063ffffffff16565b9050610a077f1deb3926aac06bad1d53a5f4d6ba066e3cb73d3046fb5049adc86c944d1e47ae60001b61030e565b610a337f557d0668ad3cf11ff5b107d07fdaa3e5548430ab43fc9e2334bebef440251c6960001b61030e565b600160009054906101000a900473ffffffffffffffffffffffffffffffffffffffff1673ffffffffffffffffffffffffffffffffffffffff166340c10f1985836040518363ffffffff1660e01b8152600401610a909291906124fc565b600060405180830381600087803b158015610aaa57600080fd5b505af1158015610abe573d6000803e3d6000fd5b50505050610aee7f361518da677ea532ed3867c9f1a7b8b654152075bcab69a7ce3c2fd9452ad73460001b61030e565b610b1a7fa53c4ac6d1b9d5e5071ddcef656ea6b4d50b6fa18dac8aceaae6c943c4755ec360001b61030e565b8373ffffffffffffffffffffffffffffffffffffffff163373ffffffffffffffffffffffffffffffffffffffff167f46661dab58311a6838247afecbee792192b4f27fc8b3e7168c66bc55ec2e404e8334604051610b799291906123d8565b60405180910390a350505050565b60008060149054906101000a900460ff16905090565b610ba5612119565b73ffffffffffffffffffffffffffffffffffffffff16610bc3610fa2565b73ffffffffffffffffffffffffffffffffffffffff1614610c19576040517f08c379a0000000000000000000000000000000000000000000000000000000008152600401610c1090612571565b60405180910390fd5b610c236000612121565b565b610c2d612119565b73ffffffffffffffffffffffffffffffffffffffff16610c4b610fa2565b73ffffffffffffffffffffffffffffffffffffffff1614610ca1576040517f08c379a0000000000000000000000000000000000000000000000000000000008152600401610c9890612571565b60405180910390fd5b610ccd7fb1bbf4f14568cfe1560a4955fa29dc75c32f9f431275089e910cd65788a3557660001b61030e565b610cf97f17425db7abe4330e7265b4014a2737843eced1e75ae58834ee412d46ee7ba74160001b61030e565b610d257f85a68323e72e8df1a3be8681c6a8356f494b5a93d93dc3f9cd731863835ab9ef60001b61030e565b610d517f39a1caad2a61e20d9d9a9a197411e8cd40b287ce5810d49fce7abb2e88efbb7260001b61030e565b6000821415610d5f57600080fd5b610d8b7fd76022a343deac0fdbdec161a87c3a3ac63b5fe854443ad3cfdd44a074b4664a60001b61030e565b610db77f60eb0b96a941e27f44e677c42dfe50a8bef7eea5bd0976354b6d93fd427f287860001b61030e565b610de37f2ec5ffea966171bc7a03f051184ef40bde431951def8491523633102056004db60001b61030e565b610e0f7fbf3db4e5896ae912720ff4943e0d69d4bc2f2aad3eaa8a15e7aea0bbbfe56bd460001b61030e565b6000811415610e1d57600080fd5b610e497f10645719c0c909c42edd270c76f07ceb4453faa21604dedcf931fa1341daa09f60001b61030e565b610e757f34ccf64cddef0bdc3d647673171cbfa57da06d11778e3f380c2f03823d7d6a9f60001b61030e565b610ea17f5e01d9ba8167c1d9539cdf0937bc6fe4ca2da495df969c79e00ab1740e46d07b60001b61030e565b81600360000181905550610ed77f04658548a2f9648fe920f13daa81f533017a72bc633c9f04c9dd266377dd9fd060001b61030e565b610f037f4c937fe3ca58da78f08512bdb96a4f3c4f1c6dd15a4355e340ce4a05fd951c4760001b61030e565b80600360010181905550610f397f27712a6a2b41358da7d178ac55d251c12754335f9a52dd2e4a40b8bc36c076dc60001b61030e565b610f657fb24a8efa120c868660ae50c7a4f7ea784feda643c867b1f0e6a690a3b0b750fa60001b61030e565b7f92664190cca12aca9cd5309d87194bdda75bb51362d71c06e1a6f75c7c7657118282604051610f969291906123d8565b60405180910390a15050565b60008060009054906101000a900473ffffffffffffffffffffffffffffffffffffffff16905090565b606181565b60038060000154908060010154905082565b61100e7f3550c524f2cb10854772db13a5fd866438f56079ade736e3a18a88f928a7eb8960001b61030e565b61103a7f956754f245df61750b3ff715fc1c3460cbbbfc8eb4ccb6d16996c73fc36befd960001b61030e565b6110667f2d6757ab31c0ba80480bf5f6066feadcbb05d70cbc7e1dc812aeec1ea79bd0b260001b61030e565b6110927f9b0eaa1a071934308c07b53d6bf020aaacf5da389ea02a17528b92a6dcd1378260001b61030e565b600073ffffffffffffffffffffffffffffffffffffffff16600260009054906101000a900473ffffffffffffffffffffffffffffffffffffffff1673ffffffffffffffffffffffffffffffffffffffff1614156110ee57600080fd5b61111a7f218bd9c0e7a8096d437f795c416f6143ccbbbbdcf2544b2c874bf58270c6c98060001b61030e565b6111467f71dedd22c6d2caca739f5541b4e33a1f0b25614a7ba4a750ecd1b48e39b7cf7f60001b61030e565b61114e610b87565b1561118e576040517f08c379a0000000000000000000000000000000000000000000000000000000008152600401611185906124dc565b60405180910390fd5b6111ba7f796d77fcf562295f0f10d6f508906510f7000443f4d4429131b215e40c297ac360001b61030e565b6111e67f3a80db5f6526977462185440b9cd024327e63ab9f5308142bb923b7c7cb5387960001b61030e565b6112127f07a2ca20d819a66be47939373a7468d9dd1829f1dcda642da8dc6e5722013fa160001b61030e565b61123e7fb69812bf7f3ca6baf544da48c82b0dc80cd227862e74b80223529eae0aca373560001b61030e565b6000600360000154141561125157600080fd5b61127d7fb32a86dac938085fea28a190aadaaef27a4b742d08d1cc1e9c37f3791b068f2460001b61030e565b6112a97f90eb1d34e2c916bf1a6d941f8f5052909c1462bf83b8122cd339976169fdf3d560001b61030e565b6112d57f6cff9860564cd4da66c70a955ecb9db075a41956fce6d40a7919ad9cd900fb1260001b61030e565b6113017f55b878b7b53dc1adf9370e2115726b28580826d40968c00c72cc977aabf2b36460001b61030e565b6000600360010154141561131457600080fd5b6113407fecda94b4763151d2030d1bbab75ca430d643b0adb4b704349e072bf04550d1ac60001b61030e565b61136c7f0ded886e6779651c0029827db614b0119f2407ed0924d065c08037eed4b099ff60001b61030e565b816113997f2f8f4f3392bf5bb5a62f72a84576a1d7c68ffef17e09683aa95c71173d11f84660001b61030e565b6113c57f98b2b987b3fb75496a5443b7203b1b450c502d32cbe6764cdc7d4998bf8a234060001b61030e565b6113f17fa0576c061658faf0a7e14d3a6d4c5af996418df47a022fb2e8d217e775bc4a7f60001b61030e565b61141d7fd654e2ce9b4867acf9c778540e2c464bc9bfa1ae5cf3925d06981307e72dc2d360001b61030e565b600073ffffffffffffffffffffffffffffffffffffffff168173ffffffffffffffffffffffffffffffffffffffff16141561145757600080fd5b6114837f65e8faeb08fb0ecc4568afc1f6e5e49d9645212c8aa861803350ed7d3fc5c30960001b61030e565b6114af7fe58beaa39c1ac4f56de9b44eb1c0b85817e6bf2b0439dcf21b73fe1857cea3fd60001b61030e565b6114db7fd02ab5bf53203d4fb73e41de716c1424bacc0eeb33208ae749f3f7404addfb2260001b61030e565b6115077f4eb9c20ea6c36968d4ff378d00a2b710449da5b9cf42d0c8992b89f644267b7260001b61030e565b6115337f40db17aa59bcc601c6c72f4a69ead4ed835226cc2b0b5376ee69cf3f5d0402d160001b61030e565b61155f7fb771379a6f794407eca98ed2b49a0947cbe3bb93479379894cdf570b294ec81f60001b61030e565b600082141561156d57600080fd5b6115997f4dc071c19a6b761f0f89c142af7415025534fab1cc39845a8a1689a3851afb7860001b61030e565b6115c57f4f3caf1801078810ee7082dddd445dadc8044ac422d1c66b7a5cc1ea2e53c0c960001b61030e565b6115f17fc4219864a7a3ac0b86d29060be15e348457e7787e02a58a44e9565e6034e35cc60001b61030e565b60003390506116227f8d8813a4578531bc2221ad08215163942ddb9288abb74f24bf4db5f13086a25160001b61030e565b61164e7fea33786d37743c6ea82d363be0af0d0ff35aa3391197dafcd295421c79d941e960001b61030e565b600061167f600360000154611671866003600101546120ed90919063ffffffff16565b61210390919063ffffffff16565b90506116ad7fd80a1d78e7b3cc910ffc5c5acc614b92b3c36c5711eb82b1b59b2e10f352f56860001b61030e565b6116d97ff40b05994365e6a8f0d6ae05cde7eaf313eb92fb75129c94007ad97fa37cf39960001b61030e565b600061170260646116f46061856120ed90919063ffffffff16565b61210390919063ffffffff16565b90506117307f0c375953962b58463cffa48d271c54b488cf049b5300ede195dab22a010c7c2660001b61030e565b61175c7f44535c6532fc01a92f0252182c58b59c89942f629135fb4b0ba24c7199a0e8ce60001b61030e565b8047106119d95761178f7f06667908d4e92794cec373a5f185897b3b04e69c77ea76bc6f4351dafe26e85b60001b61030e565b6117bb7f1418e3726d78a9293bc7579a46cbb6ec582902f98ce55d4dff609ef74a816b3d60001b61030e565b6117e77fcf3ca25b265bb238f4e8760c5f3c1600f9506c27b0550587954a49e137cd9bd260001b61030e565b600160009054906101000a900473ffffffffffffffffffffffffffffffffffffffff1673ffffffffffffffffffffffffffffffffffffffff16639dc29fac84876040518363ffffffff1660e01b81526004016118449291906124fc565b600060405180830381600087803b15801561185e57600080fd5b505af1158015611872573d6000803e3d6000fd5b505050506118a27fca6774de1504adedf6dd8077680e6e7bd43faf0d6b94c9e10f8da7ee8c819c3860001b61030e565b6118ce7f3273975944ec7be200e1f5d70c794ca958c40920fa4cab41b44339cac38102b660001b61030e565b8573ffffffffffffffffffffffffffffffffffffffff166108fc829081150290604051600060405180830381858888f19350505050158015611914573d6000803e3d6000fd5b506119417f26b333b2c28a8ccb64d644bc39716e19a37acb4288235cf0d8e0fa97d78348dc60001b61030e565b61196d7f796fcc6253bff3056b7e8f943d7767070c631211bfb7acee97926a9eaaa0d71c60001b61030e565b8573ffffffffffffffffffffffffffffffffffffffff168373ffffffffffffffffffffffffffffffffffffffff167fc2b4a290c20fb28939d29f102514fbffd2b73c059ffba8b78250c94161d5fcc687846040516119cc9291906123d8565b60405180910390a3611ac5565b611a057f86858cf5029adff26fd77667949814ace656cd8b481d2f51c814c2010648212160001b61030e565b611a317fdc7d6c144b976af9e7b9dfea5857cf6d6859a71c5bee3fec85323cf271e9dbd660001b61030e565b611a5d7f222ba23a2e9524e142887e0f89af0b947a1faf729ee2c4a36c6fb09abc46c4ab60001b61030e565b8573ffffffffffffffffffffffffffffffffffffffff168373ffffffffffffffffffffffffffffffffffffffff167fedc433769a950fd5882705ec0185de2a8cd2c97eb5d2c01a01c57827fb16b2978784604051611abc9291906123d8565b60405180910390a35b505050505050565b50565b611ad8612119565b73ffffffffffffffffffffffffffffffffffffffff16611af6610fa2565b73ffffffffffffffffffffffffffffffffffffffff1614611b4c576040517f08c379a0000000000000000000000000000000000000000000000000000000008152600401611b4390612571565b60405180910390fd5b80611b797f2f8f4f3392bf5bb5a62f72a84576a1d7c68ffef17e09683aa95c71173d11f84660001b61030e565b611ba57f98b2b987b3fb75496a5443b7203b1b450c502d32cbe6764cdc7d4998bf8a234060001b61030e565b611bd17fa0576c061658faf0a7e14d3a6d4c5af996418df47a022fb2e8d217e775bc4a7f60001b61030e565b611bfd7fd654e2ce9b4867acf9c778540e2c464bc9bfa1ae5cf3925d06981307e72dc2d360001b61030e565b600073ffffffffffffffffffffffffffffffffffffffff168173ffffffffffffffffffffffffffffffffffffffff161415611c3757600080fd5b611c637f65e8faeb08fb0ecc4568afc1f6e5e49d9645212c8aa861803350ed7d3fc5c30960001b61030e565b611c8f7fe58beaa39c1ac4f56de9b44eb1c0b85817e6bf2b0439dcf21b73fe1857cea3fd60001b61030e565b611cbb7fe5f1c947067ca321d2123eeef95425f741072e466f3d446787df03620e8a4cbd60001b61030e565b611ce77f667ace57f468b0576efc7d23333be375c7f8e77b8b5a410ad4f670c03f0b2c1860001b61030e565b611d137fa46f2dfff71b17fb9337799a9d73bcbe1a94708b2beccf77e9ce3a81047423d160001b61030e565b611d3f7fe159f0d9c6bd461aab55ce570e7f1ea59ce2caba5c33d6efdd2277693574507460001b61030e565b600073ffffffffffffffffffffffffffffffffffffffff16600260009054906101000a900473ffffffffffffffffffffffffffffffffffffffff1673ffffffffffffffffffffffffffffffffffffffff1614611d9a57600080fd5b611dc67fc5aaa7b22507116fcc46bd1f5f86dda1cf8f401cb7c11a0e92027f62af1152a160001b61030e565b611df27f53292d60afaa0e216d44de3126c5966cf2dc07b639478bd2d7d6e104c23f697a60001b61030e565b611e1e7f1a15c1299de89cf63833a995723e0f3ed84c4f6e795afb7896f173b28b68c81860001b61030e565b81600260006101000a81548173ffffffffffffffffffffffffffffffffffffffff021916908373ffffffffffffffffffffffffffffffffffffffff160217905550611e8b7f1a711ecf8e9add52c0f73fcfd893c90843c3891527400847092f51d3c047fae260001b61030e565b611eb77f1ebd8b3bdbf15a8e978549f18cd36dc44fd1c38702184cf07d525e29c4e1b7f460001b61030e565b600260009054906101000a900473ffffffffffffffffffffffffffffffffffffffff16600160006101000a81548173ffffffffffffffffffffffffffffffffffffffff021916908373ffffffffffffffffffffffffffffffffffffffff160217905550611f467f38150f619decce882cc35f64100b6cda6690f07b5b70b66577a70bbd9fd11a7360001b61030e565b611f727f4f4aab93786744149169363f2050888ab43a261a59676b8ef8568e2d79ee045960001b61030e565b7f8c8ebf0419c2606f1d3f19aa47ccba3ba2d744b95fd72ab51cc0873957ecf1b0600260009054906101000a900473ffffffffffffffffffffffffffffffffffffffff16604051611fc391906123bd565b60405180910390a15050565b611fd7612119565b73ffffffffffffffffffffffffffffffffffffffff16611ff5610fa2565b73ffffffffffffffffffffffffffffffffffffffff161461204b576040517f08c379a000000000000000000000000000000000000000000000000000000000815260040161204290612571565b60405180910390fd5b600073ffffffffffffffffffffffffffffffffffffffff168173ffffffffffffffffffffffffffffffffffffffff1614156120bb576040517f08c379a00000000000000000000000000000000000000000000000000000000081526004016120b290612603565b60405180910390fd5b6120c481612121565b50565b600260009054906101000a900473ffffffffffffffffffffffffffffffffffffffff1681565b600081836120fb9190612652565b905092915050565b6000818361211191906126db565b905092915050565b600033905090565b60008060009054906101000a900473ffffffffffffffffffffffffffffffffffffffff169050816000806101000a81548173ffffffffffffffffffffffffffffffffffffffff021916908373ffffffffffffffffffffffffffffffffffffffff1602179055508173ffffffffffffffffffffffffffffffffffffffff168173ffffffffffffffffffffffffffffffffffffffff167f8be0079c531659141344cd1fd0a4f28419497f9722a3daafe3b4186f6b6457e060405160405180910390a35050565b600080fd5b6000819050919050565b6121fd816121ea565b811461220857600080fd5b50565b60008135905061221a816121f4565b92915050565b600060208284031215612236576122356121e5565b5b60006122448482850161220b565b91505092915050565b6000819050919050565b6122608161224d565b82525050565b600060208201905061227b6000830184612257565b92915050565b600073ffffffffffffffffffffffffffffffffffffffff82169050919050565b60006122ac82612281565b9050919050565b6122bc816122a1565b81146122c757600080fd5b50565b6000813590506122d9816122b3565b92915050565b6000602082840312156122f5576122f46121e5565b5b6000612303848285016122ca565b91505092915050565b60008115159050919050565b6123218161230c565b82525050565b600060208201905061233c6000830184612318565b92915050565b61234b8161224d565b811461235657600080fd5b50565b60008135905061236881612342565b92915050565b60008060408385031215612385576123846121e5565b5b600061239385828601612359565b92505060206123a485828601612359565b9150509250929050565b6123b7816122a1565b82525050565b60006020820190506123d260008301846123ae565b92915050565b60006040820190506123ed6000830185612257565b6123fa6020830184612257565b9392505050565b600061240c82612281565b9050919050565b61241c81612401565b811461242757600080fd5b50565b60008135905061243981612413565b92915050565b60008060408385031215612456576124556121e5565b5b60006124648582860161242a565b925050602061247585828601612359565b9150509250929050565b600082825260208201905092915050565b7f5061757361626c653a2070617573656400000000000000000000000000000000600082015250565b60006124c660108361247f565b91506124d182612490565b602082019050919050565b600060208201905081810360008301526124f5816124b9565b9050919050565b600060408201905061251160008301856123ae565b61251e6020830184612257565b9392505050565b7f4f776e61626c653a2063616c6c6572206973206e6f7420746865206f776e6572600082015250565b600061255b60208361247f565b915061256682612525565b602082019050919050565b6000602082019050818103600083015261258a8161254e565b9050919050565b7f4f776e61626c653a206e6577206f776e657220697320746865207a65726f206160008201527f6464726573730000000000000000000000000000000000000000000000000000602082015250565b60006125ed60268361247f565b91506125f882612591565b604082019050919050565b6000602082019050818103600083015261261c816125e0565b9050919050565b7f4e487b7100000000000000000000000000000000000000000000000000000000600052601160045260246000fd5b600061265d8261224d565b91506126688361224d565b9250817fffffffffffffffffffffffffffffffffffffffffffffffffffffffffffffffff04831182151516156126a1576126a0612623565b5b828202905092915050565b7f4e487b7100000000000000000000000000000000000000000000000000000000600052601260045260246000fd5b60006126e68261224d565b91506126f18361224d565b925082612701576127006126ac565b5b82820490509291505056fea264697066735822122030fc908ebd108c98c2fb5d4f143423dea72bdccdfdd9a995e5fd1808582acae064736f6c63430008090033",
          "opcodes": "PUSH1 0x80 PUSH1 0x40 MSTORE CALLVALUE DUP1 ISZERO PUSH3 0x11 JUMPI PUSH1 0x0 DUP1 REVERT JUMPDEST POP PUSH3 0x32 PUSH3 0x26 PUSH3 0xBA PUSH1 0x20 SHL PUSH1 0x20 SHR JUMP JUMPDEST PUSH3 0xC2 PUSH1 0x20 SHL PUSH1 0x20 SHR JUMP JUMPDEST PUSH3 0x66 PUSH32 0x32DC0C5D0FDFD59330C363AA699CAD528E3ECE02FDB3114C8B3554EBEE833BC8 PUSH1 0x0 SHL PUSH3 0x186 PUSH1 0x20 SHL PUSH1 0x20 SHR JUMP JUMPDEST PUSH1 0x0 DUP1 PUSH1 0x14 PUSH2 0x100 EXP DUP2 SLOAD DUP2 PUSH1 0xFF MUL NOT AND SWAP1 DUP4 ISZERO ISZERO MUL OR SWAP1 SSTORE POP PUSH3 0xB4 PUSH32 0xCA95A30F5186FF2F8D5EECA276224B3D72A1F0EDF0B3622173C5A00942285DA5 PUSH1 0x0 SHL PUSH3 0x189 PUSH1 0x20 SHL PUSH1 0x20 SHR JUMP JUMPDEST PUSH3 0x18C JUMP JUMPDEST PUSH1 0x0 CALLER SWAP1 POP SWAP1 JUMP JUMPDEST PUSH1 0x0 DUP1 PUSH1 0x0 SWAP1 SLOAD SWAP1 PUSH2 0x100 EXP SWAP1 DIV PUSH20 0xFFFFFFFFFFFFFFFFFFFFFFFFFFFFFFFFFFFFFFFF AND SWAP1 POP DUP2 PUSH1 0x0 DUP1 PUSH2 0x100 EXP DUP2 SLOAD DUP2 PUSH20 0xFFFFFFFFFFFFFFFFFFFFFFFFFFFFFFFFFFFFFFFF MUL NOT AND SWAP1 DUP4 PUSH20 0xFFFFFFFFFFFFFFFFFFFFFFFFFFFFFFFFFFFFFFFF AND MUL OR SWAP1 SSTORE POP DUP2 PUSH20 0xFFFFFFFFFFFFFFFFFFFFFFFFFFFFFFFFFFFFFFFF AND DUP2 PUSH20 0xFFFFFFFFFFFFFFFFFFFFFFFFFFFFFFFFFFFFFFFF AND PUSH32 0x8BE0079C531659141344CD1FD0A4F28419497F9722A3DAAFE3B4186F6B6457E0 PUSH1 0x40 MLOAD PUSH1 0x40 MLOAD DUP1 SWAP2 SUB SWAP1 LOG3 POP POP JUMP JUMPDEST POP JUMP JUMPDEST POP JUMP JUMPDEST PUSH2 0x2742 DUP1 PUSH3 0x19C PUSH1 0x0 CODECOPY PUSH1 0x0 RETURN INVALID PUSH1 0x80 PUSH1 0x40 MSTORE PUSH1 0x4 CALLDATASIZE LT PUSH2 0xDD JUMPI PUSH1 0x0 CALLDATALOAD PUSH1 0xE0 SHR DUP1 PUSH4 0x9BFF5DDB GT PUSH2 0x7F JUMPI DUP1 PUSH4 0xB680A372 GT PUSH2 0x59 JUMPI DUP1 PUSH4 0xB680A372 EQ PUSH2 0x268 JUMPI DUP1 PUSH4 0xD48BFCA7 EQ PUSH2 0x291 JUMPI DUP1 PUSH4 0xF2FDE38B EQ PUSH2 0x2BA JUMPI DUP1 PUSH4 0xFC0C546A EQ PUSH2 0x2E3 JUMPI PUSH2 0xDD JUMP JUMPDEST DUP1 PUSH4 0x9BFF5DDB EQ PUSH2 0x1E8 JUMPI DUP1 PUSH4 0x9D1B464A EQ PUSH2 0x213 JUMPI DUP1 PUSH4 0xB51D0534 EQ PUSH2 0x23F JUMPI PUSH2 0xDD JUMP JUMPDEST DUP1 PUSH4 0x5C975ABB GT PUSH2 0xBB JUMPI DUP1 PUSH4 0x5C975ABB EQ PUSH2 0x152 JUMPI DUP1 PUSH4 0x715018A6 EQ PUSH2 0x17D JUMPI DUP1 PUSH4 0x82367B2D EQ PUSH2 0x194 JUMPI DUP1 PUSH4 0x8DA5CB5B EQ PUSH2 0x1BD JUMPI PUSH2 0xDD JUMP JUMPDEST DUP1 PUSH4 0xAC2E88B EQ PUSH2 0xE2 JUMPI DUP1 PUSH4 0x1874979B EQ PUSH2 0x10B JUMPI DUP1 PUSH4 0x4C85B425 EQ PUSH2 0x136 JUMPI JUMPDEST PUSH1 0x0 DUP1 REVERT JUMPDEST CALLVALUE DUP1 ISZERO PUSH2 0xEE JUMPI PUSH1 0x0 DUP1 REVERT JUMPDEST POP PUSH2 0x109 PUSH1 0x4 DUP1 CALLDATASIZE SUB DUP2 ADD SWAP1 PUSH2 0x104 SWAP2 SWAP1 PUSH2 0x2220 JUMP JUMPDEST PUSH2 0x30E JUMP JUMPDEST STOP JUMPDEST CALLVALUE DUP1 ISZERO PUSH2 0x117 JUMPI PUSH1 0x0 DUP1 REVERT JUMPDEST POP PUSH2 0x120 PUSH2 0x311 JUMP JUMPDEST PUSH1 0x40 MLOAD PUSH2 0x12D SWAP2 SWAP1 PUSH2 0x2266 JUMP JUMPDEST PUSH1 0x40 MLOAD DUP1 SWAP2 SUB SWAP1 RETURN JUMPDEST PUSH2 0x150 PUSH1 0x4 DUP1 CALLDATASIZE SUB DUP2 ADD SWAP1 PUSH2 0x14B SWAP2 SWAP1 PUSH2 0x22DF JUMP JUMPDEST PUSH2 0x316 JUMP JUMPDEST STOP JUMPDEST CALLVALUE DUP1 ISZERO PUSH2 0x15E JUMPI PUSH1 0x0 DUP1 REVERT JUMPDEST POP PUSH2 0x167 PUSH2 0xB87 JUMP JUMPDEST PUSH1 0x40 MLOAD PUSH2 0x174 SWAP2 SWAP1 PUSH2 0x2327 JUMP JUMPDEST PUSH1 0x40 MLOAD DUP1 SWAP2 SUB SWAP1 RETURN JUMPDEST CALLVALUE DUP1 ISZERO PUSH2 0x189 JUMPI PUSH1 0x0 DUP1 REVERT JUMPDEST POP PUSH2 0x192 PUSH2 0xB9D JUMP JUMPDEST STOP JUMPDEST CALLVALUE DUP1 ISZERO PUSH2 0x1A0 JUMPI PUSH1 0x0 DUP1 REVERT JUMPDEST POP PUSH2 0x1BB PUSH1 0x4 DUP1 CALLDATASIZE SUB DUP2 ADD SWAP1 PUSH2 0x1B6 SWAP2 SWAP1 PUSH2 0x236E JUMP JUMPDEST PUSH2 0xC25 JUMP JUMPDEST STOP JUMPDEST CALLVALUE DUP1 ISZERO PUSH2 0x1C9 JUMPI PUSH1 0x0 DUP1 REVERT JUMPDEST POP PUSH2 0x1D2 PUSH2 0xFA2 JUMP JUMPDEST PUSH1 0x40 MLOAD PUSH2 0x1DF SWAP2 SWAP1 PUSH2 0x23BD JUMP JUMPDEST PUSH1 0x40 MLOAD DUP1 SWAP2 SUB SWAP1 RETURN JUMPDEST CALLVALUE DUP1 ISZERO PUSH2 0x1F4 JUMPI PUSH1 0x0 DUP1 REVERT JUMPDEST POP PUSH2 0x1FD PUSH2 0xFCB JUMP JUMPDEST PUSH1 0x40 MLOAD PUSH2 0x20A SWAP2 SWAP1 PUSH2 0x2266 JUMP JUMPDEST PUSH1 0x40 MLOAD DUP1 SWAP2 SUB SWAP1 RETURN JUMPDEST CALLVALUE DUP1 ISZERO PUSH2 0x21F JUMPI PUSH1 0x0 DUP1 REVERT JUMPDEST POP PUSH2 0x228 PUSH2 0xFD0 JUMP JUMPDEST PUSH1 0x40 MLOAD PUSH2 0x236 SWAP3 SWAP2 SWAP1 PUSH2 0x23D8 JUMP JUMPDEST PUSH1 0x40 MLOAD DUP1 SWAP2 SUB SWAP1 RETURN JUMPDEST CALLVALUE DUP1 ISZERO PUSH2 0x24B JUMPI PUSH1 0x0 DUP1 REVERT JUMPDEST POP PUSH2 0x266 PUSH1 0x4 DUP1 CALLDATASIZE SUB DUP2 ADD SWAP1 PUSH2 0x261 SWAP2 SWAP1 PUSH2 0x243F JUMP JUMPDEST PUSH2 0xFE2 JUMP JUMPDEST STOP JUMPDEST CALLVALUE DUP1 ISZERO PUSH2 0x274 JUMPI PUSH1 0x0 DUP1 REVERT JUMPDEST POP PUSH2 0x28F PUSH1 0x4 DUP1 CALLDATASIZE SUB DUP2 ADD SWAP1 PUSH2 0x28A SWAP2 SWAP1 PUSH2 0x2220 JUMP JUMPDEST PUSH2 0x1ACD JUMP JUMPDEST STOP JUMPDEST CALLVALUE DUP1 ISZERO PUSH2 0x29D JUMPI PUSH1 0x0 DUP1 REVERT JUMPDEST POP PUSH2 0x2B8 PUSH1 0x4 DUP1 CALLDATASIZE SUB DUP2 ADD SWAP1 PUSH2 0x2B3 SWAP2 SWAP1 PUSH2 0x22DF JUMP JUMPDEST PUSH2 0x1AD0 JUMP JUMPDEST STOP JUMPDEST CALLVALUE DUP1 ISZERO PUSH2 0x2C6 JUMPI PUSH1 0x0 DUP1 REVERT JUMPDEST POP PUSH2 0x2E1 PUSH1 0x4 DUP1 CALLDATASIZE SUB DUP2 ADD SWAP1 PUSH2 0x2DC SWAP2 SWAP1 PUSH2 0x22DF JUMP JUMPDEST PUSH2 0x1FCF JUMP JUMPDEST STOP JUMPDEST CALLVALUE DUP1 ISZERO PUSH2 0x2EF JUMPI PUSH1 0x0 DUP1 REVERT JUMPDEST POP PUSH2 0x2F8 PUSH2 0x20C7 JUMP JUMPDEST PUSH1 0x40 MLOAD PUSH2 0x305 SWAP2 SWAP1 PUSH2 0x23BD JUMP JUMPDEST PUSH1 0x40 MLOAD DUP1 SWAP2 SUB SWAP1 RETURN JUMPDEST POP JUMP JUMPDEST PUSH1 0x61 DUP2 JUMP JUMPDEST PUSH2 0x342 PUSH32 0x3550C524F2CB10854772DB13A5FD866438F56079ADE736E3A18A88F928A7EB89 PUSH1 0x0 SHL PUSH2 0x30E JUMP JUMPDEST PUSH2 0x36E PUSH32 0x956754F245DF61750B3FF715FC1C3460CBBBFC8EB4CCB6D16996C73FC36BEFD9 PUSH1 0x0 SHL PUSH2 0x30E JUMP JUMPDEST PUSH2 0x39A PUSH32 0x2D6757AB31C0BA80480BF5F6066FEADCBB05D70CBC7E1DC812AEEC1EA79BD0B2 PUSH1 0x0 SHL PUSH2 0x30E JUMP JUMPDEST PUSH2 0x3C6 PUSH32 0x9B0EAA1A071934308C07B53D6BF020AAACF5DA389EA02A17528B92A6DCD13782 PUSH1 0x0 SHL PUSH2 0x30E JUMP JUMPDEST PUSH1 0x0 PUSH20 0xFFFFFFFFFFFFFFFFFFFFFFFFFFFFFFFFFFFFFFFF AND PUSH1 0x2 PUSH1 0x0 SWAP1 SLOAD SWAP1 PUSH2 0x100 EXP SWAP1 DIV PUSH20 0xFFFFFFFFFFFFFFFFFFFFFFFFFFFFFFFFFFFFFFFF AND PUSH20 0xFFFFFFFFFFFFFFFFFFFFFFFFFFFFFFFFFFFFFFFF AND EQ ISZERO PUSH2 0x422 JUMPI PUSH1 0x0 DUP1 REVERT JUMPDEST PUSH2 0x44E PUSH32 0x218BD9C0E7A8096D437F795C416F6143CCBBBBDCF2544B2C874BF58270C6C980 PUSH1 0x0 SHL PUSH2 0x30E JUMP JUMPDEST PUSH2 0x47A PUSH32 0x71DEDD22C6D2CACA739F5541B4E33A1F0B25614A7BA4A750ECD1B48E39B7CF7F PUSH1 0x0 SHL PUSH2 0x30E JUMP JUMPDEST PUSH2 0x482 PUSH2 0xB87 JUMP JUMPDEST ISZERO PUSH2 0x4C2 JUMPI PUSH1 0x40 MLOAD PUSH32 0x8C379A000000000000000000000000000000000000000000000000000000000 DUP2 MSTORE PUSH1 0x4 ADD PUSH2 0x4B9 SWAP1 PUSH2 0x24DC JUMP JUMPDEST PUSH1 0x40 MLOAD DUP1 SWAP2 SUB SWAP1 REVERT JUMPDEST PUSH2 0x4EE PUSH32 0x796D77FCF562295F0F10D6F508906510F7000443F4D4429131B215E40C297AC3 PUSH1 0x0 SHL PUSH2 0x30E JUMP JUMPDEST PUSH2 0x51A PUSH32 0x3A80DB5F6526977462185440B9CD024327E63AB9F5308142BB923B7C7CB53879 PUSH1 0x0 SHL PUSH2 0x30E JUMP JUMPDEST PUSH2 0x546 PUSH32 0x7A2CA20D819A66BE47939373A7468D9DD1829F1DCDA642DA8DC6E5722013FA1 PUSH1 0x0 SHL PUSH2 0x30E JUMP JUMPDEST PUSH2 0x572 PUSH32 0xB69812BF7F3CA6BAF544DA48C82B0DC80CD227862E74B80223529EAE0ACA3735 PUSH1 0x0 SHL PUSH2 0x30E JUMP JUMPDEST PUSH1 0x0 PUSH1 0x3 PUSH1 0x0 ADD SLOAD EQ ISZERO PUSH2 0x585 JUMPI PUSH1 0x0 DUP1 REVERT JUMPDEST PUSH2 0x5B1 PUSH32 0xB32A86DAC938085FEA28A190AADAAEF27A4B742D08D1CC1E9C37F3791B068F24 PUSH1 0x0 SHL PUSH2 0x30E JUMP JUMPDEST PUSH2 0x5DD PUSH32 0x90EB1D34E2C916BF1A6D941F8F5052909C1462BF83B8122CD339976169FDF3D5 PUSH1 0x0 SHL PUSH2 0x30E JUMP JUMPDEST PUSH2 0x609 PUSH32 0x6CFF9860564CD4DA66C70A955ECB9DB075A41956FCE6D40A7919AD9CD900FB12 PUSH1 0x0 SHL PUSH2 0x30E JUMP JUMPDEST PUSH2 0x635 PUSH32 0x55B878B7B53DC1ADF9370E2115726B28580826D40968C00C72CC977AABF2B364 PUSH1 0x0 SHL PUSH2 0x30E JUMP JUMPDEST PUSH1 0x0 PUSH1 0x3 PUSH1 0x1 ADD SLOAD EQ ISZERO PUSH2 0x648 JUMPI PUSH1 0x0 DUP1 REVERT JUMPDEST PUSH2 0x674 PUSH32 0xECDA94B4763151D2030D1BBAB75CA430D643B0ADB4B704349E072BF04550D1AC PUSH1 0x0 SHL PUSH2 0x30E JUMP JUMPDEST PUSH2 0x6A0 PUSH32 0xDED886E6779651C0029827DB614B0119F2407ED0924D065C08037EED4B099FF PUSH1 0x0 SHL PUSH2 0x30E JUMP JUMPDEST DUP1 PUSH2 0x6CD PUSH32 0x2F8F4F3392BF5BB5A62F72A84576A1D7C68FFEF17E09683AA95C71173D11F846 PUSH1 0x0 SHL PUSH2 0x30E JUMP JUMPDEST PUSH2 0x6F9 PUSH32 0x98B2B987B3FB75496A5443B7203B1B450C502D32CBE6764CDC7D4998BF8A2340 PUSH1 0x0 SHL PUSH2 0x30E JUMP JUMPDEST PUSH2 0x725 PUSH32 0xA0576C061658FAF0A7E14D3A6D4C5AF996418DF47A022FB2E8D217E775BC4A7F PUSH1 0x0 SHL PUSH2 0x30E JUMP JUMPDEST PUSH2 0x751 PUSH32 0xD654E2CE9B4867ACF9C778540E2C464BC9BFA1AE5CF3925D06981307E72DC2D3 PUSH1 0x0 SHL PUSH2 0x30E JUMP JUMPDEST PUSH1 0x0 PUSH20 0xFFFFFFFFFFFFFFFFFFFFFFFFFFFFFFFFFFFFFFFF AND DUP2 PUSH20 0xFFFFFFFFFFFFFFFFFFFFFFFFFFFFFFFFFFFFFFFF AND EQ ISZERO PUSH2 0x78B JUMPI PUSH1 0x0 DUP1 REVERT JUMPDEST PUSH2 0x7B7 PUSH32 0x65E8FAEB08FB0ECC4568AFC1F6E5E49D9645212C8AA861803350ED7D3FC5C309 PUSH1 0x0 SHL PUSH2 0x30E JUMP JUMPDEST PUSH2 0x7E3 PUSH32 0xE58BEAA39C1AC4F56DE9B44EB1C0B85817E6BF2B0439DCF21B73FE1857CEA3FD PUSH1 0x0 SHL PUSH2 0x30E JUMP JUMPDEST PUSH2 0x80F PUSH32 0xD2A94C4286628EEAEE17ED26EED0920ACC20C79A914145D19EC7C35C1DB369E4 PUSH1 0x0 SHL PUSH2 0x30E JUMP JUMPDEST PUSH2 0x83B PUSH32 0x596D02D671E696AA875438F42C11ED15DC211D3477FA9ADE5C9E682424BA4944 PUSH1 0x0 SHL PUSH2 0x30E JUMP JUMPDEST PUSH2 0x867 PUSH32 0x92ED6BD842E7759C0C76CD10BCF1C305E484599BCF9406593D57A6244F79193A PUSH1 0x0 SHL PUSH2 0x30E JUMP JUMPDEST PUSH2 0x893 PUSH32 0xC4084EB0945BA7C7D5FF34935978B7B79D5FFE5D0D045328B23305B66FF89A45 PUSH1 0x0 SHL PUSH2 0x30E JUMP JUMPDEST PUSH1 0x0 CALLVALUE EQ ISZERO PUSH2 0x8A1 JUMPI PUSH1 0x0 DUP1 REVERT JUMPDEST PUSH2 0x8CD PUSH32 0x73D43C7B43AB0ED8413AAB9DC3F59D963E3F6527445F87EF68DC83D23A497350 PUSH1 0x0 SHL PUSH2 0x30E JUMP JUMPDEST PUSH2 0x8F9 PUSH32 0xFBFDFB4A0721EB2514E9A57F679549665941729A0118137B411659B65C09D2AA PUSH1 0x0 SHL PUSH2 0x30E JUMP JUMPDEST PUSH2 0x925 PUSH32 0xD29DB7349A4FFD4EBCC7A96744633FF6BF4D7547C1168EAC80604636DC39E3E9 PUSH1 0x0 SHL PUSH2 0x30E JUMP JUMPDEST PUSH1 0x0 PUSH2 0x956 PUSH1 0x3 PUSH1 0x1 ADD SLOAD PUSH2 0x948 PUSH1 0x3 PUSH1 0x0 ADD SLOAD CALLVALUE PUSH2 0x20ED SWAP1 SWAP2 SWAP1 PUSH4 0xFFFFFFFF AND JUMP JUMPDEST PUSH2 0x2103 SWAP1 SWAP2 SWAP1 PUSH4 0xFFFFFFFF AND JUMP JUMPDEST SWAP1 POP PUSH2 0x984 PUSH32 0xE678DFB05B6740E084C0CDA987E7845450BD4154B03115CB130FDBF70AFCC664 PUSH1 0x0 SHL PUSH2 0x30E JUMP JUMPDEST PUSH2 0x9B0 PUSH32 0x806E0EA02CDC04A61B284AAAC27641B4AB0EE4560948D39E9D6AB0A0C6095F53 PUSH1 0x0 SHL PUSH2 0x30E JUMP JUMPDEST PUSH1 0x0 PUSH2 0x9D9 PUSH1 0x64 PUSH2 0x9CB PUSH1 0x61 DUP6 PUSH2 0x20ED SWAP1 SWAP2 SWAP1 PUSH4 0xFFFFFFFF AND JUMP JUMPDEST PUSH2 0x2103 SWAP1 SWAP2 SWAP1 PUSH4 0xFFFFFFFF AND JUMP JUMPDEST SWAP1 POP PUSH2 0xA07 PUSH32 0x1DEB3926AAC06BAD1D53A5F4D6BA066E3CB73D3046FB5049ADC86C944D1E47AE PUSH1 0x0 SHL PUSH2 0x30E JUMP JUMPDEST PUSH2 0xA33 PUSH32 0x557D0668AD3CF11FF5B107D07FDAA3E5548430AB43FC9E2334BEBEF440251C69 PUSH1 0x0 SHL PUSH2 0x30E JUMP JUMPDEST PUSH1 0x1 PUSH1 0x0 SWAP1 SLOAD SWAP1 PUSH2 0x100 EXP SWAP1 DIV PUSH20 0xFFFFFFFFFFFFFFFFFFFFFFFFFFFFFFFFFFFFFFFF AND PUSH20 0xFFFFFFFFFFFFFFFFFFFFFFFFFFFFFFFFFFFFFFFF AND PUSH4 0x40C10F19 DUP6 DUP4 PUSH1 0x40 MLOAD DUP4 PUSH4 0xFFFFFFFF AND PUSH1 0xE0 SHL DUP2 MSTORE PUSH1 0x4 ADD PUSH2 0xA90 SWAP3 SWAP2 SWAP1 PUSH2 0x24FC JUMP JUMPDEST PUSH1 0x0 PUSH1 0x40 MLOAD DUP1 DUP4 SUB DUP2 PUSH1 0x0 DUP8 DUP1 EXTCODESIZE ISZERO DUP1 ISZERO PUSH2 0xAAA JUMPI PUSH1 0x0 DUP1 REVERT JUMPDEST POP GAS CALL ISZERO DUP1 ISZERO PUSH2 0xABE JUMPI RETURNDATASIZE PUSH1 0x0 DUP1 RETURNDATACOPY RETURNDATASIZE PUSH1 0x0 REVERT JUMPDEST POP POP POP POP PUSH2 0xAEE PUSH32 0x361518DA677EA532ED3867C9F1A7B8B654152075BCAB69A7CE3C2FD9452AD734 PUSH1 0x0 SHL PUSH2 0x30E JUMP JUMPDEST PUSH2 0xB1A PUSH32 0xA53C4AC6D1B9D5E5071DDCEF656EA6B4D50B6FA18DAC8ACEAAE6C943C4755EC3 PUSH1 0x0 SHL PUSH2 0x30E JUMP JUMPDEST DUP4 PUSH20 0xFFFFFFFFFFFFFFFFFFFFFFFFFFFFFFFFFFFFFFFF AND CALLER PUSH20 0xFFFFFFFFFFFFFFFFFFFFFFFFFFFFFFFFFFFFFFFF AND PUSH32 0x46661DAB58311A6838247AFECBEE792192B4F27FC8B3E7168C66BC55EC2E404E DUP4 CALLVALUE PUSH1 0x40 MLOAD PUSH2 0xB79 SWAP3 SWAP2 SWAP1 PUSH2 0x23D8 JUMP JUMPDEST PUSH1 0x40 MLOAD DUP1 SWAP2 SUB SWAP1 LOG3 POP POP POP POP JUMP JUMPDEST PUSH1 0x0 DUP1 PUSH1 0x14 SWAP1 SLOAD SWAP1 PUSH2 0x100 EXP SWAP1 DIV PUSH1 0xFF AND SWAP1 POP SWAP1 JUMP JUMPDEST PUSH2 0xBA5 PUSH2 0x2119 JUMP JUMPDEST PUSH20 0xFFFFFFFFFFFFFFFFFFFFFFFFFFFFFFFFFFFFFFFF AND PUSH2 0xBC3 PUSH2 0xFA2 JUMP JUMPDEST PUSH20 0xFFFFFFFFFFFFFFFFFFFFFFFFFFFFFFFFFFFFFFFF AND EQ PUSH2 0xC19 JUMPI PUSH1 0x40 MLOAD PUSH32 0x8C379A000000000000000000000000000000000000000000000000000000000 DUP2 MSTORE PUSH1 0x4 ADD PUSH2 0xC10 SWAP1 PUSH2 0x2571 JUMP JUMPDEST PUSH1 0x40 MLOAD DUP1 SWAP2 SUB SWAP1 REVERT JUMPDEST PUSH2 0xC23 PUSH1 0x0 PUSH2 0x2121 JUMP JUMPDEST JUMP JUMPDEST PUSH2 0xC2D PUSH2 0x2119 JUMP JUMPDEST PUSH20 0xFFFFFFFFFFFFFFFFFFFFFFFFFFFFFFFFFFFFFFFF AND PUSH2 0xC4B PUSH2 0xFA2 JUMP JUMPDEST PUSH20 0xFFFFFFFFFFFFFFFFFFFFFFFFFFFFFFFFFFFFFFFF AND EQ PUSH2 0xCA1 JUMPI PUSH1 0x40 MLOAD PUSH32 0x8C379A000000000000000000000000000000000000000000000000000000000 DUP2 MSTORE PUSH1 0x4 ADD PUSH2 0xC98 SWAP1 PUSH2 0x2571 JUMP JUMPDEST PUSH1 0x40 MLOAD DUP1 SWAP2 SUB SWAP1 REVERT JUMPDEST PUSH2 0xCCD PUSH32 0xB1BBF4F14568CFE1560A4955FA29DC75C32F9F431275089E910CD65788A35576 PUSH1 0x0 SHL PUSH2 0x30E JUMP JUMPDEST PUSH2 0xCF9 PUSH32 0x17425DB7ABE4330E7265B4014A2737843ECED1E75AE58834EE412D46EE7BA741 PUSH1 0x0 SHL PUSH2 0x30E JUMP JUMPDEST PUSH2 0xD25 PUSH32 0x85A68323E72E8DF1A3BE8681C6A8356F494B5A93D93DC3F9CD731863835AB9EF PUSH1 0x0 SHL PUSH2 0x30E JUMP JUMPDEST PUSH2 0xD51 PUSH32 0x39A1CAAD2A61E20D9D9A9A197411E8CD40B287CE5810D49FCE7ABB2E88EFBB72 PUSH1 0x0 SHL PUSH2 0x30E JUMP JUMPDEST PUSH1 0x0 DUP3 EQ ISZERO PUSH2 0xD5F JUMPI PUSH1 0x0 DUP1 REVERT JUMPDEST PUSH2 0xD8B PUSH32 0xD76022A343DEAC0FDBDEC161A87C3A3AC63B5FE854443AD3CFDD44A074B4664A PUSH1 0x0 SHL PUSH2 0x30E JUMP JUMPDEST PUSH2 0xDB7 PUSH32 0x60EB0B96A941E27F44E677C42DFE50A8BEF7EEA5BD0976354B6D93FD427F2878 PUSH1 0x0 SHL PUSH2 0x30E JUMP JUMPDEST PUSH2 0xDE3 PUSH32 0x2EC5FFEA966171BC7A03F051184EF40BDE431951DEF8491523633102056004DB PUSH1 0x0 SHL PUSH2 0x30E JUMP JUMPDEST PUSH2 0xE0F PUSH32 0xBF3DB4E5896AE912720FF4943E0D69D4BC2F2AAD3EAA8A15E7AEA0BBBFE56BD4 PUSH1 0x0 SHL PUSH2 0x30E JUMP JUMPDEST PUSH1 0x0 DUP2 EQ ISZERO PUSH2 0xE1D JUMPI PUSH1 0x0 DUP1 REVERT JUMPDEST PUSH2 0xE49 PUSH32 0x10645719C0C909C42EDD270C76F07CEB4453FAA21604DEDCF931FA1341DAA09F PUSH1 0x0 SHL PUSH2 0x30E JUMP JUMPDEST PUSH2 0xE75 PUSH32 0x34CCF64CDDEF0BDC3D647673171CBFA57DA06D11778E3F380C2F03823D7D6A9F PUSH1 0x0 SHL PUSH2 0x30E JUMP JUMPDEST PUSH2 0xEA1 PUSH32 0x5E01D9BA8167C1D9539CDF0937BC6FE4CA2DA495DF969C79E00AB1740E46D07B PUSH1 0x0 SHL PUSH2 0x30E JUMP JUMPDEST DUP2 PUSH1 0x3 PUSH1 0x0 ADD DUP2 SWAP1 SSTORE POP PUSH2 0xED7 PUSH32 0x4658548A2F9648FE920F13DAA81F533017A72BC633C9F04C9DD266377DD9FD0 PUSH1 0x0 SHL PUSH2 0x30E JUMP JUMPDEST PUSH2 0xF03 PUSH32 0x4C937FE3CA58DA78F08512BDB96A4F3C4F1C6DD15A4355E340CE4A05FD951C47 PUSH1 0x0 SHL PUSH2 0x30E JUMP JUMPDEST DUP1 PUSH1 0x3 PUSH1 0x1 ADD DUP2 SWAP1 SSTORE POP PUSH2 0xF39 PUSH32 0x27712A6A2B41358DA7D178AC55D251C12754335F9A52DD2E4A40B8BC36C076DC PUSH1 0x0 SHL PUSH2 0x30E JUMP JUMPDEST PUSH2 0xF65 PUSH32 0xB24A8EFA120C868660AE50C7A4F7EA784FEDA643C867B1F0E6A690A3B0B750FA PUSH1 0x0 SHL PUSH2 0x30E JUMP JUMPDEST PUSH32 0x92664190CCA12ACA9CD5309D87194BDDA75BB51362D71C06E1A6F75C7C765711 DUP3 DUP3 PUSH1 0x40 MLOAD PUSH2 0xF96 SWAP3 SWAP2 SWAP1 PUSH2 0x23D8 JUMP JUMPDEST PUSH1 0x40 MLOAD DUP1 SWAP2 SUB SWAP1 LOG1 POP POP JUMP JUMPDEST PUSH1 0x0 DUP1 PUSH1 0x0 SWAP1 SLOAD SWAP1 PUSH2 0x100 EXP SWAP1 DIV PUSH20 0xFFFFFFFFFFFFFFFFFFFFFFFFFFFFFFFFFFFFFFFF AND SWAP1 POP SWAP1 JUMP JUMPDEST PUSH1 0x61 DUP2 JUMP JUMPDEST PUSH1 0x3 DUP1 PUSH1 0x0 ADD SLOAD SWAP1 DUP1 PUSH1 0x1 ADD SLOAD SWAP1 POP DUP3 JUMP JUMPDEST PUSH2 0x100E PUSH32 0x3550C524F2CB10854772DB13A5FD866438F56079ADE736E3A18A88F928A7EB89 PUSH1 0x0 SHL PUSH2 0x30E JUMP JUMPDEST PUSH2 0x103A PUSH32 0x956754F245DF61750B3FF715FC1C3460CBBBFC8EB4CCB6D16996C73FC36BEFD9 PUSH1 0x0 SHL PUSH2 0x30E JUMP JUMPDEST PUSH2 0x1066 PUSH32 0x2D6757AB31C0BA80480BF5F6066FEADCBB05D70CBC7E1DC812AEEC1EA79BD0B2 PUSH1 0x0 SHL PUSH2 0x30E JUMP JUMPDEST PUSH2 0x1092 PUSH32 0x9B0EAA1A071934308C07B53D6BF020AAACF5DA389EA02A17528B92A6DCD13782 PUSH1 0x0 SHL PUSH2 0x30E JUMP JUMPDEST PUSH1 0x0 PUSH20 0xFFFFFFFFFFFFFFFFFFFFFFFFFFFFFFFFFFFFFFFF AND PUSH1 0x2 PUSH1 0x0 SWAP1 SLOAD SWAP1 PUSH2 0x100 EXP SWAP1 DIV PUSH20 0xFFFFFFFFFFFFFFFFFFFFFFFFFFFFFFFFFFFFFFFF AND PUSH20 0xFFFFFFFFFFFFFFFFFFFFFFFFFFFFFFFFFFFFFFFF AND EQ ISZERO PUSH2 0x10EE JUMPI PUSH1 0x0 DUP1 REVERT JUMPDEST PUSH2 0x111A PUSH32 0x218BD9C0E7A8096D437F795C416F6143CCBBBBDCF2544B2C874BF58270C6C980 PUSH1 0x0 SHL PUSH2 0x30E JUMP JUMPDEST PUSH2 0x1146 PUSH32 0x71DEDD22C6D2CACA739F5541B4E33A1F0B25614A7BA4A750ECD1B48E39B7CF7F PUSH1 0x0 SHL PUSH2 0x30E JUMP JUMPDEST PUSH2 0x114E PUSH2 0xB87 JUMP JUMPDEST ISZERO PUSH2 0x118E JUMPI PUSH1 0x40 MLOAD PUSH32 0x8C379A000000000000000000000000000000000000000000000000000000000 DUP2 MSTORE PUSH1 0x4 ADD PUSH2 0x1185 SWAP1 PUSH2 0x24DC JUMP JUMPDEST PUSH1 0x40 MLOAD DUP1 SWAP2 SUB SWAP1 REVERT JUMPDEST PUSH2 0x11BA PUSH32 0x796D77FCF562295F0F10D6F508906510F7000443F4D4429131B215E40C297AC3 PUSH1 0x0 SHL PUSH2 0x30E JUMP JUMPDEST PUSH2 0x11E6 PUSH32 0x3A80DB5F6526977462185440B9CD024327E63AB9F5308142BB923B7C7CB53879 PUSH1 0x0 SHL PUSH2 0x30E JUMP JUMPDEST PUSH2 0x1212 PUSH32 0x7A2CA20D819A66BE47939373A7468D9DD1829F1DCDA642DA8DC6E5722013FA1 PUSH1 0x0 SHL PUSH2 0x30E JUMP JUMPDEST PUSH2 0x123E PUSH32 0xB69812BF7F3CA6BAF544DA48C82B0DC80CD227862E74B80223529EAE0ACA3735 PUSH1 0x0 SHL PUSH2 0x30E JUMP JUMPDEST PUSH1 0x0 PUSH1 0x3 PUSH1 0x0 ADD SLOAD EQ ISZERO PUSH2 0x1251 JUMPI PUSH1 0x0 DUP1 REVERT JUMPDEST PUSH2 0x127D PUSH32 0xB32A86DAC938085FEA28A190AADAAEF27A4B742D08D1CC1E9C37F3791B068F24 PUSH1 0x0 SHL PUSH2 0x30E JUMP JUMPDEST PUSH2 0x12A9 PUSH32 0x90EB1D34E2C916BF1A6D941F8F5052909C1462BF83B8122CD339976169FDF3D5 PUSH1 0x0 SHL PUSH2 0x30E JUMP JUMPDEST PUSH2 0x12D5 PUSH32 0x6CFF9860564CD4DA66C70A955ECB9DB075A41956FCE6D40A7919AD9CD900FB12 PUSH1 0x0 SHL PUSH2 0x30E JUMP JUMPDEST PUSH2 0x1301 PUSH32 0x55B878B7B53DC1ADF9370E2115726B28580826D40968C00C72CC977AABF2B364 PUSH1 0x0 SHL PUSH2 0x30E JUMP JUMPDEST PUSH1 0x0 PUSH1 0x3 PUSH1 0x1 ADD SLOAD EQ ISZERO PUSH2 0x1314 JUMPI PUSH1 0x0 DUP1 REVERT JUMPDEST PUSH2 0x1340 PUSH32 0xECDA94B4763151D2030D1BBAB75CA430D643B0ADB4B704349E072BF04550D1AC PUSH1 0x0 SHL PUSH2 0x30E JUMP JUMPDEST PUSH2 0x136C PUSH32 0xDED886E6779651C0029827DB614B0119F2407ED0924D065C08037EED4B099FF PUSH1 0x0 SHL PUSH2 0x30E JUMP JUMPDEST DUP2 PUSH2 0x1399 PUSH32 0x2F8F4F3392BF5BB5A62F72A84576A1D7C68FFEF17E09683AA95C71173D11F846 PUSH1 0x0 SHL PUSH2 0x30E JUMP JUMPDEST PUSH2 0x13C5 PUSH32 0x98B2B987B3FB75496A5443B7203B1B450C502D32CBE6764CDC7D4998BF8A2340 PUSH1 0x0 SHL PUSH2 0x30E JUMP JUMPDEST PUSH2 0x13F1 PUSH32 0xA0576C061658FAF0A7E14D3A6D4C5AF996418DF47A022FB2E8D217E775BC4A7F PUSH1 0x0 SHL PUSH2 0x30E JUMP JUMPDEST PUSH2 0x141D PUSH32 0xD654E2CE9B4867ACF9C778540E2C464BC9BFA1AE5CF3925D06981307E72DC2D3 PUSH1 0x0 SHL PUSH2 0x30E JUMP JUMPDEST PUSH1 0x0 PUSH20 0xFFFFFFFFFFFFFFFFFFFFFFFFFFFFFFFFFFFFFFFF AND DUP2 PUSH20 0xFFFFFFFFFFFFFFFFFFFFFFFFFFFFFFFFFFFFFFFF AND EQ ISZERO PUSH2 0x1457 JUMPI PUSH1 0x0 DUP1 REVERT JUMPDEST PUSH2 0x1483 PUSH32 0x65E8FAEB08FB0ECC4568AFC1F6E5E49D9645212C8AA861803350ED7D3FC5C309 PUSH1 0x0 SHL PUSH2 0x30E JUMP JUMPDEST PUSH2 0x14AF PUSH32 0xE58BEAA39C1AC4F56DE9B44EB1C0B85817E6BF2B0439DCF21B73FE1857CEA3FD PUSH1 0x0 SHL PUSH2 0x30E JUMP JUMPDEST PUSH2 0x14DB PUSH32 0xD02AB5BF53203D4FB73E41DE716C1424BACC0EEB33208AE749F3F7404ADDFB22 PUSH1 0x0 SHL PUSH2 0x30E JUMP JUMPDEST PUSH2 0x1507 PUSH32 0x4EB9C20EA6C36968D4FF378D00A2B710449DA5B9CF42D0C8992B89F644267B72 PUSH1 0x0 SHL PUSH2 0x30E JUMP JUMPDEST PUSH2 0x1533 PUSH32 0x40DB17AA59BCC601C6C72F4A69EAD4ED835226CC2B0B5376EE69CF3F5D0402D1 PUSH1 0x0 SHL PUSH2 0x30E JUMP JUMPDEST PUSH2 0x155F PUSH32 0xB771379A6F794407ECA98ED2B49A0947CBE3BB93479379894CDF570B294EC81F PUSH1 0x0 SHL PUSH2 0x30E JUMP JUMPDEST PUSH1 0x0 DUP3 EQ ISZERO PUSH2 0x156D JUMPI PUSH1 0x0 DUP1 REVERT JUMPDEST PUSH2 0x1599 PUSH32 0x4DC071C19A6B761F0F89C142AF7415025534FAB1CC39845A8A1689A3851AFB78 PUSH1 0x0 SHL PUSH2 0x30E JUMP JUMPDEST PUSH2 0x15C5 PUSH32 0x4F3CAF1801078810EE7082DDDD445DADC8044AC422D1C66B7A5CC1EA2E53C0C9 PUSH1 0x0 SHL PUSH2 0x30E JUMP JUMPDEST PUSH2 0x15F1 PUSH32 0xC4219864A7A3AC0B86D29060BE15E348457E7787E02A58A44E9565E6034E35CC PUSH1 0x0 SHL PUSH2 0x30E JUMP JUMPDEST PUSH1 0x0 CALLER SWAP1 POP PUSH2 0x1622 PUSH32 0x8D8813A4578531BC2221AD08215163942DDB9288ABB74F24BF4DB5F13086A251 PUSH1 0x0 SHL PUSH2 0x30E JUMP JUMPDEST PUSH2 0x164E PUSH32 0xEA33786D37743C6EA82D363BE0AF0D0FF35AA3391197DAFCD295421C79D941E9 PUSH1 0x0 SHL PUSH2 0x30E JUMP JUMPDEST PUSH1 0x0 PUSH2 0x167F PUSH1 0x3 PUSH1 0x0 ADD SLOAD PUSH2 0x1671 DUP7 PUSH1 0x3 PUSH1 0x1 ADD SLOAD PUSH2 0x20ED SWAP1 SWAP2 SWAP1 PUSH4 0xFFFFFFFF AND JUMP JUMPDEST PUSH2 0x2103 SWAP1 SWAP2 SWAP1 PUSH4 0xFFFFFFFF AND JUMP JUMPDEST SWAP1 POP PUSH2 0x16AD PUSH32 0xD80A1D78E7B3CC910FFC5C5ACC614B92B3C36C5711EB82B1B59B2E10F352F568 PUSH1 0x0 SHL PUSH2 0x30E JUMP JUMPDEST PUSH2 0x16D9 PUSH32 0xF40B05994365E6A8F0D6AE05CDE7EAF313EB92FB75129C94007AD97FA37CF399 PUSH1 0x0 SHL PUSH2 0x30E JUMP JUMPDEST PUSH1 0x0 PUSH2 0x1702 PUSH1 0x64 PUSH2 0x16F4 PUSH1 0x61 DUP6 PUSH2 0x20ED SWAP1 SWAP2 SWAP1 PUSH4 0xFFFFFFFF AND JUMP JUMPDEST PUSH2 0x2103 SWAP1 SWAP2 SWAP1 PUSH4 0xFFFFFFFF AND JUMP JUMPDEST SWAP1 POP PUSH2 0x1730 PUSH32 0xC375953962B58463CFFA48D271C54B488CF049B5300EDE195DAB22A010C7C26 PUSH1 0x0 SHL PUSH2 0x30E JUMP JUMPDEST PUSH2 0x175C PUSH32 0x44535C6532FC01A92F0252182C58B59C89942F629135FB4B0BA24C7199A0E8CE PUSH1 0x0 SHL PUSH2 0x30E JUMP JUMPDEST DUP1 SELFBALANCE LT PUSH2 0x19D9 JUMPI PUSH2 0x178F PUSH32 0x6667908D4E92794CEC373A5F185897B3B04E69C77EA76BC6F4351DAFE26E85B PUSH1 0x0 SHL PUSH2 0x30E JUMP JUMPDEST PUSH2 0x17BB PUSH32 0x1418E3726D78A9293BC7579A46CBB6EC582902F98CE55D4DFF609EF74A816B3D PUSH1 0x0 SHL PUSH2 0x30E JUMP JUMPDEST PUSH2 0x17E7 PUSH32 0xCF3CA25B265BB238F4E8760C5F3C1600F9506C27B0550587954A49E137CD9BD2 PUSH1 0x0 SHL PUSH2 0x30E JUMP JUMPDEST PUSH1 0x1 PUSH1 0x0 SWAP1 SLOAD SWAP1 PUSH2 0x100 EXP SWAP1 DIV PUSH20 0xFFFFFFFFFFFFFFFFFFFFFFFFFFFFFFFFFFFFFFFF AND PUSH20 0xFFFFFFFFFFFFFFFFFFFFFFFFFFFFFFFFFFFFFFFF AND PUSH4 0x9DC29FAC DUP5 DUP8 PUSH1 0x40 MLOAD DUP4 PUSH4 0xFFFFFFFF AND PUSH1 0xE0 SHL DUP2 MSTORE PUSH1 0x4 ADD PUSH2 0x1844 SWAP3 SWAP2 SWAP1 PUSH2 0x24FC JUMP JUMPDEST PUSH1 0x0 PUSH1 0x40 MLOAD DUP1 DUP4 SUB DUP2 PUSH1 0x0 DUP8 DUP1 EXTCODESIZE ISZERO DUP1 ISZERO PUSH2 0x185E JUMPI PUSH1 0x0 DUP1 REVERT JUMPDEST POP GAS CALL ISZERO DUP1 ISZERO PUSH2 0x1872 JUMPI RETURNDATASIZE PUSH1 0x0 DUP1 RETURNDATACOPY RETURNDATASIZE PUSH1 0x0 REVERT JUMPDEST POP POP POP POP PUSH2 0x18A2 PUSH32 0xCA6774DE1504ADEDF6DD8077680E6E7BD43FAF0D6B94C9E10F8DA7EE8C819C38 PUSH1 0x0 SHL PUSH2 0x30E JUMP JUMPDEST PUSH2 0x18CE PUSH32 0x3273975944EC7BE200E1F5D70C794CA958C40920FA4CAB41B44339CAC38102B6 PUSH1 0x0 SHL PUSH2 0x30E JUMP JUMPDEST DUP6 PUSH20 0xFFFFFFFFFFFFFFFFFFFFFFFFFFFFFFFFFFFFFFFF AND PUSH2 0x8FC DUP3 SWAP1 DUP2 ISZERO MUL SWAP1 PUSH1 0x40 MLOAD PUSH1 0x0 PUSH1 0x40 MLOAD DUP1 DUP4 SUB DUP2 DUP6 DUP9 DUP9 CALL SWAP4 POP POP POP POP ISZERO DUP1 ISZERO PUSH2 0x1914 JUMPI RETURNDATASIZE PUSH1 0x0 DUP1 RETURNDATACOPY RETURNDATASIZE PUSH1 0x0 REVERT JUMPDEST POP PUSH2 0x1941 PUSH32 0x26B333B2C28A8CCB64D644BC39716E19A37ACB4288235CF0D8E0FA97D78348DC PUSH1 0x0 SHL PUSH2 0x30E JUMP JUMPDEST PUSH2 0x196D PUSH32 0x796FCC6253BFF3056B7E8F943D7767070C631211BFB7ACEE97926A9EAAA0D71C PUSH1 0x0 SHL PUSH2 0x30E JUMP JUMPDEST DUP6 PUSH20 0xFFFFFFFFFFFFFFFFFFFFFFFFFFFFFFFFFFFFFFFF AND DUP4 PUSH20 0xFFFFFFFFFFFFFFFFFFFFFFFFFFFFFFFFFFFFFFFF AND PUSH32 0xC2B4A290C20FB28939D29F102514FBFFD2B73C059FFBA8B78250C94161D5FCC6 DUP8 DUP5 PUSH1 0x40 MLOAD PUSH2 0x19CC SWAP3 SWAP2 SWAP1 PUSH2 0x23D8 JUMP JUMPDEST PUSH1 0x40 MLOAD DUP1 SWAP2 SUB SWAP1 LOG3 PUSH2 0x1AC5 JUMP JUMPDEST PUSH2 0x1A05 PUSH32 0x86858CF5029ADFF26FD77667949814ACE656CD8B481D2F51C814C20106482121 PUSH1 0x0 SHL PUSH2 0x30E JUMP JUMPDEST PUSH2 0x1A31 PUSH32 0xDC7D6C144B976AF9E7B9DFEA5857CF6D6859A71C5BEE3FEC85323CF271E9DBD6 PUSH1 0x0 SHL PUSH2 0x30E JUMP JUMPDEST PUSH2 0x1A5D PUSH32 0x222BA23A2E9524E142887E0F89AF0B947A1FAF729EE2C4A36C6FB09ABC46C4AB PUSH1 0x0 SHL PUSH2 0x30E JUMP JUMPDEST DUP6 PUSH20 0xFFFFFFFFFFFFFFFFFFFFFFFFFFFFFFFFFFFFFFFF AND DUP4 PUSH20 0xFFFFFFFFFFFFFFFFFFFFFFFFFFFFFFFFFFFFFFFF AND PUSH32 0xEDC433769A950FD5882705EC0185DE2A8CD2C97EB5D2C01A01C57827FB16B297 DUP8 DUP5 PUSH1 0x40 MLOAD PUSH2 0x1ABC SWAP3 SWAP2 SWAP1 PUSH2 0x23D8 JUMP JUMPDEST PUSH1 0x40 MLOAD DUP1 SWAP2 SUB SWAP1 LOG3 JUMPDEST POP POP POP POP POP POP JUMP JUMPDEST POP JUMP JUMPDEST PUSH2 0x1AD8 PUSH2 0x2119 JUMP JUMPDEST PUSH20 0xFFFFFFFFFFFFFFFFFFFFFFFFFFFFFFFFFFFFFFFF AND PUSH2 0x1AF6 PUSH2 0xFA2 JUMP JUMPDEST PUSH20 0xFFFFFFFFFFFFFFFFFFFFFFFFFFFFFFFFFFFFFFFF AND EQ PUSH2 0x1B4C JUMPI PUSH1 0x40 MLOAD PUSH32 0x8C379A000000000000000000000000000000000000000000000000000000000 DUP2 MSTORE PUSH1 0x4 ADD PUSH2 0x1B43 SWAP1 PUSH2 0x2571 JUMP JUMPDEST PUSH1 0x40 MLOAD DUP1 SWAP2 SUB SWAP1 REVERT JUMPDEST DUP1 PUSH2 0x1B79 PUSH32 0x2F8F4F3392BF5BB5A62F72A84576A1D7C68FFEF17E09683AA95C71173D11F846 PUSH1 0x0 SHL PUSH2 0x30E JUMP JUMPDEST PUSH2 0x1BA5 PUSH32 0x98B2B987B3FB75496A5443B7203B1B450C502D32CBE6764CDC7D4998BF8A2340 PUSH1 0x0 SHL PUSH2 0x30E JUMP JUMPDEST PUSH2 0x1BD1 PUSH32 0xA0576C061658FAF0A7E14D3A6D4C5AF996418DF47A022FB2E8D217E775BC4A7F PUSH1 0x0 SHL PUSH2 0x30E JUMP JUMPDEST PUSH2 0x1BFD PUSH32 0xD654E2CE9B4867ACF9C778540E2C464BC9BFA1AE5CF3925D06981307E72DC2D3 PUSH1 0x0 SHL PUSH2 0x30E JUMP JUMPDEST PUSH1 0x0 PUSH20 0xFFFFFFFFFFFFFFFFFFFFFFFFFFFFFFFFFFFFFFFF AND DUP2 PUSH20 0xFFFFFFFFFFFFFFFFFFFFFFFFFFFFFFFFFFFFFFFF AND EQ ISZERO PUSH2 0x1C37 JUMPI PUSH1 0x0 DUP1 REVERT JUMPDEST PUSH2 0x1C63 PUSH32 0x65E8FAEB08FB0ECC4568AFC1F6E5E49D9645212C8AA861803350ED7D3FC5C309 PUSH1 0x0 SHL PUSH2 0x30E JUMP JUMPDEST PUSH2 0x1C8F PUSH32 0xE58BEAA39C1AC4F56DE9B44EB1C0B85817E6BF2B0439DCF21B73FE1857CEA3FD PUSH1 0x0 SHL PUSH2 0x30E JUMP JUMPDEST PUSH2 0x1CBB PUSH32 0xE5F1C947067CA321D2123EEEF95425F741072E466F3D446787DF03620E8A4CBD PUSH1 0x0 SHL PUSH2 0x30E JUMP JUMPDEST PUSH2 0x1CE7 PUSH32 0x667ACE57F468B0576EFC7D23333BE375C7F8E77B8B5A410AD4F670C03F0B2C18 PUSH1 0x0 SHL PUSH2 0x30E JUMP JUMPDEST PUSH2 0x1D13 PUSH32 0xA46F2DFFF71B17FB9337799A9D73BCBE1A94708B2BECCF77E9CE3A81047423D1 PUSH1 0x0 SHL PUSH2 0x30E JUMP JUMPDEST PUSH2 0x1D3F PUSH32 0xE159F0D9C6BD461AAB55CE570E7F1EA59CE2CABA5C33D6EFDD22776935745074 PUSH1 0x0 SHL PUSH2 0x30E JUMP JUMPDEST PUSH1 0x0 PUSH20 0xFFFFFFFFFFFFFFFFFFFFFFFFFFFFFFFFFFFFFFFF AND PUSH1 0x2 PUSH1 0x0 SWAP1 SLOAD SWAP1 PUSH2 0x100 EXP SWAP1 DIV PUSH20 0xFFFFFFFFFFFFFFFFFFFFFFFFFFFFFFFFFFFFFFFF AND PUSH20 0xFFFFFFFFFFFFFFFFFFFFFFFFFFFFFFFFFFFFFFFF AND EQ PUSH2 0x1D9A JUMPI PUSH1 0x0 DUP1 REVERT JUMPDEST PUSH2 0x1DC6 PUSH32 0xC5AAA7B22507116FCC46BD1F5F86DDA1CF8F401CB7C11A0E92027F62AF1152A1 PUSH1 0x0 SHL PUSH2 0x30E JUMP JUMPDEST PUSH2 0x1DF2 PUSH32 0x53292D60AFAA0E216D44DE3126C5966CF2DC07B639478BD2D7D6E104C23F697A PUSH1 0x0 SHL PUSH2 0x30E JUMP JUMPDEST PUSH2 0x1E1E PUSH32 0x1A15C1299DE89CF63833A995723E0F3ED84C4F6E795AFB7896F173B28B68C818 PUSH1 0x0 SHL PUSH2 0x30E JUMP JUMPDEST DUP2 PUSH1 0x2 PUSH1 0x0 PUSH2 0x100 EXP DUP2 SLOAD DUP2 PUSH20 0xFFFFFFFFFFFFFFFFFFFFFFFFFFFFFFFFFFFFFFFF MUL NOT AND SWAP1 DUP4 PUSH20 0xFFFFFFFFFFFFFFFFFFFFFFFFFFFFFFFFFFFFFFFF AND MUL OR SWAP1 SSTORE POP PUSH2 0x1E8B PUSH32 0x1A711ECF8E9ADD52C0F73FCFD893C90843C3891527400847092F51D3C047FAE2 PUSH1 0x0 SHL PUSH2 0x30E JUMP JUMPDEST PUSH2 0x1EB7 PUSH32 0x1EBD8B3BDBF15A8E978549F18CD36DC44FD1C38702184CF07D525E29C4E1B7F4 PUSH1 0x0 SHL PUSH2 0x30E JUMP JUMPDEST PUSH1 0x2 PUSH1 0x0 SWAP1 SLOAD SWAP1 PUSH2 0x100 EXP SWAP1 DIV PUSH20 0xFFFFFFFFFFFFFFFFFFFFFFFFFFFFFFFFFFFFFFFF AND PUSH1 0x1 PUSH1 0x0 PUSH2 0x100 EXP DUP2 SLOAD DUP2 PUSH20 0xFFFFFFFFFFFFFFFFFFFFFFFFFFFFFFFFFFFFFFFF MUL NOT AND SWAP1 DUP4 PUSH20 0xFFFFFFFFFFFFFFFFFFFFFFFFFFFFFFFFFFFFFFFF AND MUL OR SWAP1 SSTORE POP PUSH2 0x1F46 PUSH32 0x38150F619DECCE882CC35F64100B6CDA6690F07B5B70B66577A70BBD9FD11A73 PUSH1 0x0 SHL PUSH2 0x30E JUMP JUMPDEST PUSH2 0x1F72 PUSH32 0x4F4AAB93786744149169363F2050888AB43A261A59676B8EF8568E2D79EE0459 PUSH1 0x0 SHL PUSH2 0x30E JUMP JUMPDEST PUSH32 0x8C8EBF0419C2606F1D3F19AA47CCBA3BA2D744B95FD72AB51CC0873957ECF1B0 PUSH1 0x2 PUSH1 0x0 SWAP1 SLOAD SWAP1 PUSH2 0x100 EXP SWAP1 DIV PUSH20 0xFFFFFFFFFFFFFFFFFFFFFFFFFFFFFFFFFFFFFFFF AND PUSH1 0x40 MLOAD PUSH2 0x1FC3 SWAP2 SWAP1 PUSH2 0x23BD JUMP JUMPDEST PUSH1 0x40 MLOAD DUP1 SWAP2 SUB SWAP1 LOG1 POP POP JUMP JUMPDEST PUSH2 0x1FD7 PUSH2 0x2119 JUMP JUMPDEST PUSH20 0xFFFFFFFFFFFFFFFFFFFFFFFFFFFFFFFFFFFFFFFF AND PUSH2 0x1FF5 PUSH2 0xFA2 JUMP JUMPDEST PUSH20 0xFFFFFFFFFFFFFFFFFFFFFFFFFFFFFFFFFFFFFFFF AND EQ PUSH2 0x204B JUMPI PUSH1 0x40 MLOAD PUSH32 0x8C379A000000000000000000000000000000000000000000000000000000000 DUP2 MSTORE PUSH1 0x4 ADD PUSH2 0x2042 SWAP1 PUSH2 0x2571 JUMP JUMPDEST PUSH1 0x40 MLOAD DUP1 SWAP2 SUB SWAP1 REVERT JUMPDEST PUSH1 0x0 PUSH20 0xFFFFFFFFFFFFFFFFFFFFFFFFFFFFFFFFFFFFFFFF AND DUP2 PUSH20 0xFFFFFFFFFFFFFFFFFFFFFFFFFFFFFFFFFFFFFFFF AND EQ ISZERO PUSH2 0x20BB JUMPI PUSH1 0x40 MLOAD PUSH32 0x8C379A000000000000000000000000000000000000000000000000000000000 DUP2 MSTORE PUSH1 0x4 ADD PUSH2 0x20B2 SWAP1 PUSH2 0x2603 JUMP JUMPDEST PUSH1 0x40 MLOAD DUP1 SWAP2 SUB SWAP1 REVERT JUMPDEST PUSH2 0x20C4 DUP2 PUSH2 0x2121 JUMP JUMPDEST POP JUMP JUMPDEST PUSH1 0x2 PUSH1 0x0 SWAP1 SLOAD SWAP1 PUSH2 0x100 EXP SWAP1 DIV PUSH20 0xFFFFFFFFFFFFFFFFFFFFFFFFFFFFFFFFFFFFFFFF AND DUP2 JUMP JUMPDEST PUSH1 0x0 DUP2 DUP4 PUSH2 0x20FB SWAP2 SWAP1 PUSH2 0x2652 JUMP JUMPDEST SWAP1 POP SWAP3 SWAP2 POP POP JUMP JUMPDEST PUSH1 0x0 DUP2 DUP4 PUSH2 0x2111 SWAP2 SWAP1 PUSH2 0x26DB JUMP JUMPDEST SWAP1 POP SWAP3 SWAP2 POP POP JUMP JUMPDEST PUSH1 0x0 CALLER SWAP1 POP SWAP1 JUMP JUMPDEST PUSH1 0x0 DUP1 PUSH1 0x0 SWAP1 SLOAD SWAP1 PUSH2 0x100 EXP SWAP1 DIV PUSH20 0xFFFFFFFFFFFFFFFFFFFFFFFFFFFFFFFFFFFFFFFF AND SWAP1 POP DUP2 PUSH1 0x0 DUP1 PUSH2 0x100 EXP DUP2 SLOAD DUP2 PUSH20 0xFFFFFFFFFFFFFFFFFFFFFFFFFFFFFFFFFFFFFFFF MUL NOT AND SWAP1 DUP4 PUSH20 0xFFFFFFFFFFFFFFFFFFFFFFFFFFFFFFFFFFFFFFFF AND MUL OR SWAP1 SSTORE POP DUP2 PUSH20 0xFFFFFFFFFFFFFFFFFFFFFFFFFFFFFFFFFFFFFFFF AND DUP2 PUSH20 0xFFFFFFFFFFFFFFFFFFFFFFFFFFFFFFFFFFFFFFFF AND PUSH32 0x8BE0079C531659141344CD1FD0A4F28419497F9722A3DAAFE3B4186F6B6457E0 PUSH1 0x40 MLOAD PUSH1 0x40 MLOAD DUP1 SWAP2 SUB SWAP1 LOG3 POP POP JUMP JUMPDEST PUSH1 0x0 DUP1 REVERT JUMPDEST PUSH1 0x0 DUP2 SWAP1 POP SWAP2 SWAP1 POP JUMP JUMPDEST PUSH2 0x21FD DUP2 PUSH2 0x21EA JUMP JUMPDEST DUP2 EQ PUSH2 0x2208 JUMPI PUSH1 0x0 DUP1 REVERT JUMPDEST POP JUMP JUMPDEST PUSH1 0x0 DUP2 CALLDATALOAD SWAP1 POP PUSH2 0x221A DUP2 PUSH2 0x21F4 JUMP JUMPDEST SWAP3 SWAP2 POP POP JUMP JUMPDEST PUSH1 0x0 PUSH1 0x20 DUP3 DUP5 SUB SLT ISZERO PUSH2 0x2236 JUMPI PUSH2 0x2235 PUSH2 0x21E5 JUMP JUMPDEST JUMPDEST PUSH1 0x0 PUSH2 0x2244 DUP5 DUP3 DUP6 ADD PUSH2 0x220B JUMP JUMPDEST SWAP2 POP POP SWAP3 SWAP2 POP POP JUMP JUMPDEST PUSH1 0x0 DUP2 SWAP1 POP SWAP2 SWAP1 POP JUMP JUMPDEST PUSH2 0x2260 DUP2 PUSH2 0x224D JUMP JUMPDEST DUP3 MSTORE POP POP JUMP JUMPDEST PUSH1 0x0 PUSH1 0x20 DUP3 ADD SWAP1 POP PUSH2 0x227B PUSH1 0x0 DUP4 ADD DUP5 PUSH2 0x2257 JUMP JUMPDEST SWAP3 SWAP2 POP POP JUMP JUMPDEST PUSH1 0x0 PUSH20 0xFFFFFFFFFFFFFFFFFFFFFFFFFFFFFFFFFFFFFFFF DUP3 AND SWAP1 POP SWAP2 SWAP1 POP JUMP JUMPDEST PUSH1 0x0 PUSH2 0x22AC DUP3 PUSH2 0x2281 JUMP JUMPDEST SWAP1 POP SWAP2 SWAP1 POP JUMP JUMPDEST PUSH2 0x22BC DUP2 PUSH2 0x22A1 JUMP JUMPDEST DUP2 EQ PUSH2 0x22C7 JUMPI PUSH1 0x0 DUP1 REVERT JUMPDEST POP JUMP JUMPDEST PUSH1 0x0 DUP2 CALLDATALOAD SWAP1 POP PUSH2 0x22D9 DUP2 PUSH2 0x22B3 JUMP JUMPDEST SWAP3 SWAP2 POP POP JUMP JUMPDEST PUSH1 0x0 PUSH1 0x20 DUP3 DUP5 SUB SLT ISZERO PUSH2 0x22F5 JUMPI PUSH2 0x22F4 PUSH2 0x21E5 JUMP JUMPDEST JUMPDEST PUSH1 0x0 PUSH2 0x2303 DUP5 DUP3 DUP6 ADD PUSH2 0x22CA JUMP JUMPDEST SWAP2 POP POP SWAP3 SWAP2 POP POP JUMP JUMPDEST PUSH1 0x0 DUP2 ISZERO ISZERO SWAP1 POP SWAP2 SWAP1 POP JUMP JUMPDEST PUSH2 0x2321 DUP2 PUSH2 0x230C JUMP JUMPDEST DUP3 MSTORE POP POP JUMP JUMPDEST PUSH1 0x0 PUSH1 0x20 DUP3 ADD SWAP1 POP PUSH2 0x233C PUSH1 0x0 DUP4 ADD DUP5 PUSH2 0x2318 JUMP JUMPDEST SWAP3 SWAP2 POP POP JUMP JUMPDEST PUSH2 0x234B DUP2 PUSH2 0x224D JUMP JUMPDEST DUP2 EQ PUSH2 0x2356 JUMPI PUSH1 0x0 DUP1 REVERT JUMPDEST POP JUMP JUMPDEST PUSH1 0x0 DUP2 CALLDATALOAD SWAP1 POP PUSH2 0x2368 DUP2 PUSH2 0x2342 JUMP JUMPDEST SWAP3 SWAP2 POP POP JUMP JUMPDEST PUSH1 0x0 DUP1 PUSH1 0x40 DUP4 DUP6 SUB SLT ISZERO PUSH2 0x2385 JUMPI PUSH2 0x2384 PUSH2 0x21E5 JUMP JUMPDEST JUMPDEST PUSH1 0x0 PUSH2 0x2393 DUP6 DUP3 DUP7 ADD PUSH2 0x2359 JUMP JUMPDEST SWAP3 POP POP PUSH1 0x20 PUSH2 0x23A4 DUP6 DUP3 DUP7 ADD PUSH2 0x2359 JUMP JUMPDEST SWAP2 POP POP SWAP3 POP SWAP3 SWAP1 POP JUMP JUMPDEST PUSH2 0x23B7 DUP2 PUSH2 0x22A1 JUMP JUMPDEST DUP3 MSTORE POP POP JUMP JUMPDEST PUSH1 0x0 PUSH1 0x20 DUP3 ADD SWAP1 POP PUSH2 0x23D2 PUSH1 0x0 DUP4 ADD DUP5 PUSH2 0x23AE JUMP JUMPDEST SWAP3 SWAP2 POP POP JUMP JUMPDEST PUSH1 0x0 PUSH1 0x40 DUP3 ADD SWAP1 POP PUSH2 0x23ED PUSH1 0x0 DUP4 ADD DUP6 PUSH2 0x2257 JUMP JUMPDEST PUSH2 0x23FA PUSH1 0x20 DUP4 ADD DUP5 PUSH2 0x2257 JUMP JUMPDEST SWAP4 SWAP3 POP POP POP JUMP JUMPDEST PUSH1 0x0 PUSH2 0x240C DUP3 PUSH2 0x2281 JUMP JUMPDEST SWAP1 POP SWAP2 SWAP1 POP JUMP JUMPDEST PUSH2 0x241C DUP2 PUSH2 0x2401 JUMP JUMPDEST DUP2 EQ PUSH2 0x2427 JUMPI PUSH1 0x0 DUP1 REVERT JUMPDEST POP JUMP JUMPDEST PUSH1 0x0 DUP2 CALLDATALOAD SWAP1 POP PUSH2 0x2439 DUP2 PUSH2 0x2413 JUMP JUMPDEST SWAP3 SWAP2 POP POP JUMP JUMPDEST PUSH1 0x0 DUP1 PUSH1 0x40 DUP4 DUP6 SUB SLT ISZERO PUSH2 0x2456 JUMPI PUSH2 0x2455 PUSH2 0x21E5 JUMP JUMPDEST JUMPDEST PUSH1 0x0 PUSH2 0x2464 DUP6 DUP3 DUP7 ADD PUSH2 0x242A JUMP JUMPDEST SWAP3 POP POP PUSH1 0x20 PUSH2 0x2475 DUP6 DUP3 DUP7 ADD PUSH2 0x2359 JUMP JUMPDEST SWAP2 POP POP SWAP3 POP SWAP3 SWAP1 POP JUMP JUMPDEST PUSH1 0x0 DUP3 DUP3 MSTORE PUSH1 0x20 DUP3 ADD SWAP1 POP SWAP3 SWAP2 POP POP JUMP JUMPDEST PUSH32 0x5061757361626C653A2070617573656400000000000000000000000000000000 PUSH1 0x0 DUP3 ADD MSTORE POP JUMP JUMPDEST PUSH1 0x0 PUSH2 0x24C6 PUSH1 0x10 DUP4 PUSH2 0x247F JUMP JUMPDEST SWAP2 POP PUSH2 0x24D1 DUP3 PUSH2 0x2490 JUMP JUMPDEST PUSH1 0x20 DUP3 ADD SWAP1 POP SWAP2 SWAP1 POP JUMP JUMPDEST PUSH1 0x0 PUSH1 0x20 DUP3 ADD SWAP1 POP DUP2 DUP2 SUB PUSH1 0x0 DUP4 ADD MSTORE PUSH2 0x24F5 DUP2 PUSH2 0x24B9 JUMP JUMPDEST SWAP1 POP SWAP2 SWAP1 POP JUMP JUMPDEST PUSH1 0x0 PUSH1 0x40 DUP3 ADD SWAP1 POP PUSH2 0x2511 PUSH1 0x0 DUP4 ADD DUP6 PUSH2 0x23AE JUMP JUMPDEST PUSH2 0x251E PUSH1 0x20 DUP4 ADD DUP5 PUSH2 0x2257 JUMP JUMPDEST SWAP4 SWAP3 POP POP POP JUMP JUMPDEST PUSH32 0x4F776E61626C653A2063616C6C6572206973206E6F7420746865206F776E6572 PUSH1 0x0 DUP3 ADD MSTORE POP JUMP JUMPDEST PUSH1 0x0 PUSH2 0x255B PUSH1 0x20 DUP4 PUSH2 0x247F JUMP JUMPDEST SWAP2 POP PUSH2 0x2566 DUP3 PUSH2 0x2525 JUMP JUMPDEST PUSH1 0x20 DUP3 ADD SWAP1 POP SWAP2 SWAP1 POP JUMP JUMPDEST PUSH1 0x0 PUSH1 0x20 DUP3 ADD SWAP1 POP DUP2 DUP2 SUB PUSH1 0x0 DUP4 ADD MSTORE PUSH2 0x258A DUP2 PUSH2 0x254E JUMP JUMPDEST SWAP1 POP SWAP2 SWAP1 POP JUMP JUMPDEST PUSH32 0x4F776E61626C653A206E6577206F776E657220697320746865207A65726F2061 PUSH1 0x0 DUP3 ADD MSTORE PUSH32 0x6464726573730000000000000000000000000000000000000000000000000000 PUSH1 0x20 DUP3 ADD MSTORE POP JUMP JUMPDEST PUSH1 0x0 PUSH2 0x25ED PUSH1 0x26 DUP4 PUSH2 0x247F JUMP JUMPDEST SWAP2 POP PUSH2 0x25F8 DUP3 PUSH2 0x2591 JUMP JUMPDEST PUSH1 0x40 DUP3 ADD SWAP1 POP SWAP2 SWAP1 POP JUMP JUMPDEST PUSH1 0x0 PUSH1 0x20 DUP3 ADD SWAP1 POP DUP2 DUP2 SUB PUSH1 0x0 DUP4 ADD MSTORE PUSH2 0x261C DUP2 PUSH2 0x25E0 JUMP JUMPDEST SWAP1 POP SWAP2 SWAP1 POP JUMP JUMPDEST PUSH32 0x4E487B7100000000000000000000000000000000000000000000000000000000 PUSH1 0x0 MSTORE PUSH1 0x11 PUSH1 0x4 MSTORE PUSH1 0x24 PUSH1 0x0 REVERT JUMPDEST PUSH1 0x0 PUSH2 0x265D DUP3 PUSH2 0x224D JUMP JUMPDEST SWAP2 POP PUSH2 0x2668 DUP4 PUSH2 0x224D JUMP JUMPDEST SWAP3 POP DUP2 PUSH32 0xFFFFFFFFFFFFFFFFFFFFFFFFFFFFFFFFFFFFFFFFFFFFFFFFFFFFFFFFFFFFFFFF DIV DUP4 GT DUP3 ISZERO ISZERO AND ISZERO PUSH2 0x26A1 JUMPI PUSH2 0x26A0 PUSH2 0x2623 JUMP JUMPDEST JUMPDEST DUP3 DUP3 MUL SWAP1 POP SWAP3 SWAP2 POP POP JUMP JUMPDEST PUSH32 0x4E487B7100000000000000000000000000000000000000000000000000000000 PUSH1 0x0 MSTORE PUSH1 0x12 PUSH1 0x4 MSTORE PUSH1 0x24 PUSH1 0x0 REVERT JUMPDEST PUSH1 0x0 PUSH2 0x26E6 DUP3 PUSH2 0x224D JUMP JUMPDEST SWAP2 POP PUSH2 0x26F1 DUP4 PUSH2 0x224D JUMP JUMPDEST SWAP3 POP DUP3 PUSH2 0x2701 JUMPI PUSH2 0x2700 PUSH2 0x26AC JUMP JUMPDEST JUMPDEST DUP3 DUP3 DIV SWAP1 POP SWAP3 SWAP2 POP POP JUMP INVALID LOG2 PUSH5 0x6970667358 0x22 SLT KECCAK256 ADDRESS 0xFC SWAP1 DUP15 0xBD LT DUP13 SWAP9 0xC2 0xFB 0x5D 0x4F EQ CALLVALUE 0x23 0xDE 0xA7 0x2B 0xDC 0xCD REVERT 0xD9 0xA9 SWAP6 0xE5 REVERT XOR ADDMOD PC 0x2A 0xCA 0xE0 PUSH5 0x736F6C6343 STOP ADDMOD MULMOD STOP CALLER "
        },
        "methodIdentifiers": {
          "PURCHASE_FEE()": "1874979b",
          "WITHDRAW_FEE()": "9bff5ddb",
          "addToken(address)": "d48bfca7",
          "buyShares(address)": "4c85b425",
          "c_0x5eaf4498(bytes32)": "0ac2e88b",
          "c_0x87b593dd(bytes32)": "b680a372",
          "currentPrice()": "9d1b464a",
          "owner()": "8da5cb5b",
          "paused()": "5c975abb",
          "renounceOwnership()": "715018a6",
          "sellShares(address,uint256)": "b51d0534",
          "token()": "fc0c546a",
          "transferOwnership(address)": "f2fde38b",
          "updatePrice(uint256,uint256)": "82367b2d"
        }
      }
    }
  }
}