{
  "_format": "hh-sol-artifact-1",
  "contractName": "MetaverseFund",
  "sourceName": "contracts/MetaverseFund.sol",
  "abi": [
    {
      "inputs": [],
      "stateMutability": "nonpayable",
      "type": "constructor"
    },
    {
      "anonymous": false,
      "inputs": [
        {
          "indexed": true,
          "internalType": "address",
          "name": "from",
          "type": "address"
        },
        {
          "indexed": true,
          "internalType": "address",
          "name": "to",
          "type": "address"
        },
        {
          "indexed": false,
          "internalType": "uint256",
          "name": "tokensWithdrawn",
          "type": "uint256"
        },
        {
          "indexed": false,
          "internalType": "uint256",
          "name": "etherSent",
          "type": "uint256"
        }
      ],
      "name": "FailedWithdrawal",
      "type": "event"
    },
    {
      "anonymous": false,
      "inputs": [
        {
          "indexed": false,
          "internalType": "address",
          "name": "token",
          "type": "address"
        }
      ],
      "name": "MetaverseFundTokenAdded",
      "type": "event"
    },
    {
      "anonymous": false,
      "inputs": [
        {
          "indexed": true,
          "internalType": "address",
          "name": "previousOwner",
          "type": "address"
        },
        {
          "indexed": true,
          "internalType": "address",
          "name": "newOwner",
          "type": "address"
        }
      ],
      "name": "OwnershipTransferred",
      "type": "event"
    },
    {
      "anonymous": false,
      "inputs": [
        {
          "indexed": false,
          "internalType": "address",
          "name": "account",
          "type": "address"
        }
      ],
      "name": "Paused",
      "type": "event"
    },
    {
      "anonymous": false,
      "inputs": [
        {
          "indexed": false,
          "internalType": "uint256",
          "name": "numerator",
          "type": "uint256"
        },
        {
          "indexed": false,
          "internalType": "uint256",
          "name": "denominator",
          "type": "uint256"
        }
      ],
      "name": "PriceUpdate",
      "type": "event"
    },
    {
      "anonymous": false,
      "inputs": [
        {
          "indexed": true,
          "internalType": "address",
          "name": "from",
          "type": "address"
        },
        {
          "indexed": true,
          "internalType": "address",
          "name": "to",
          "type": "address"
        },
        {
          "indexed": false,
          "internalType": "uint256",
          "name": "tokensPurchased",
          "type": "uint256"
        },
        {
          "indexed": false,
          "internalType": "uint256",
          "name": "etherReceived",
          "type": "uint256"
        }
      ],
      "name": "Purchase",
      "type": "event"
    },
    {
      "anonymous": false,
      "inputs": [
        {
          "indexed": false,
          "internalType": "address",
          "name": "account",
          "type": "address"
        }
      ],
      "name": "Unpaused",
      "type": "event"
    },
    {
      "anonymous": false,
      "inputs": [
        {
          "indexed": true,
          "internalType": "address",
          "name": "from",
          "type": "address"
        },
        {
          "indexed": true,
          "internalType": "address",
          "name": "to",
          "type": "address"
        },
        {
          "indexed": false,
          "internalType": "uint256",
          "name": "tokensWithdrawn",
          "type": "uint256"
        },
        {
          "indexed": false,
          "internalType": "uint256",
          "name": "etherSent",
          "type": "uint256"
        }
      ],
      "name": "Withdrawal",
      "type": "event"
    },
    {
      "inputs": [],
      "name": "PURCHASE_FEE",
      "outputs": [
        {
          "internalType": "uint256",
          "name": "",
          "type": "uint256"
        }
      ],
      "stateMutability": "view",
      "type": "function"
    },
    {
      "inputs": [],
      "name": "WITHDRAW_FEE",
      "outputs": [
        {
          "internalType": "uint256",
          "name": "",
          "type": "uint256"
        }
      ],
      "stateMutability": "view",
      "type": "function"
    },
    {
      "inputs": [
        {
          "internalType": "address",
          "name": "_token",
          "type": "address"
        }
      ],
      "name": "addToken",
      "outputs": [],
      "stateMutability": "nonpayable",
      "type": "function"
    },
    {
      "inputs": [
        {
          "internalType": "address",
          "name": "_to",
          "type": "address"
        }
      ],
      "name": "buyShares",
      "outputs": [],
      "stateMutability": "payable",
      "type": "function"
    },
    {
      "inputs": [
        {
          "internalType": "bytes32",
          "name": "c__0x5eaf4498",
          "type": "bytes32"
        }
      ],
      "name": "c_0x5eaf4498",
      "outputs": [],
      "stateMutability": "pure",
      "type": "function"
    },
    {
      "inputs": [
        {
          "internalType": "bytes32",
          "name": "c__0x87b593dd",
          "type": "bytes32"
        }
      ],
      "name": "c_0x87b593dd",
      "outputs": [],
      "stateMutability": "pure",
      "type": "function"
    },
    {
      "inputs": [],
      "name": "currentPrice",
      "outputs": [
        {
          "internalType": "uint256",
          "name": "numerator",
          "type": "uint256"
        },
        {
          "internalType": "uint256",
          "name": "denominator",
          "type": "uint256"
        }
      ],
      "stateMutability": "view",
      "type": "function"
    },
    {
      "inputs": [],
      "name": "owner",
      "outputs": [
        {
          "internalType": "address",
          "name": "",
          "type": "address"
        }
      ],
      "stateMutability": "view",
      "type": "function"
    },
    {
      "inputs": [],
      "name": "paused",
      "outputs": [
        {
          "internalType": "bool",
          "name": "",
          "type": "bool"
        }
      ],
      "stateMutability": "view",
      "type": "function"
    },
    {
      "inputs": [],
      "name": "renounceOwnership",
      "outputs": [],
      "stateMutability": "nonpayable",
      "type": "function"
    },
    {
      "inputs": [
        {
          "internalType": "address payable",
          "name": "_to",
          "type": "address"
        },
        {
          "internalType": "uint256",
          "name": "_value",
          "type": "uint256"
        }
      ],
      "name": "sellShares",
      "outputs": [],
      "stateMutability": "nonpayable",
      "type": "function"
    },
    {
      "inputs": [],
      "name": "token",
      "outputs": [
        {
          "internalType": "address",
          "name": "",
          "type": "address"
        }
      ],
      "stateMutability": "view",
      "type": "function"
    },
    {
      "inputs": [
        {
          "internalType": "address",
          "name": "newOwner",
          "type": "address"
        }
      ],
      "name": "transferOwnership",
      "outputs": [],
      "stateMutability": "nonpayable",
      "type": "function"
    },
    {
      "inputs": [
        {
          "internalType": "uint256",
          "name": "_numerator",
          "type": "uint256"
        },
        {
          "internalType": "uint256",
          "name": "_denominator",
          "type": "uint256"
        }
      ],
      "name": "updatePrice",
      "outputs": [],
      "stateMutability": "nonpayable",
      "type": "function"
    }
  ],
  "bytecode": "0x60806040523480156200001157600080fd5b506200003262000026620000ba60201b60201c565b620000c260201b60201c565b620000667f32dc0c5d0fdfd59330c363aa699cad528e3ece02fdb3114c8b3554ebee833bc860001b6200018660201b60201c565b60008060146101000a81548160ff021916908315150217905550620000b47fca95a30f5186ff2f8d5eeca276224b3d72a1f0edf0b3622173c5a00942285da560001b6200018960201b60201c565b6200018c565b600033905090565b60008060009054906101000a900473ffffffffffffffffffffffffffffffffffffffff169050816000806101000a81548173ffffffffffffffffffffffffffffffffffffffff021916908373ffffffffffffffffffffffffffffffffffffffff1602179055508173ffffffffffffffffffffffffffffffffffffffff168173ffffffffffffffffffffffffffffffffffffffff167f8be0079c531659141344cd1fd0a4f28419497f9722a3daafe3b4186f6b6457e060405160405180910390a35050565b50565b50565b612742806200019c6000396000f3fe6080604052600436106100dd5760003560e01c80639bff5ddb1161007f578063b680a37211610059578063b680a37214610268578063d48bfca714610291578063f2fde38b146102ba578063fc0c546a146102e3576100dd565b80639bff5ddb146101e85780639d1b464a14610213578063b51d05341461023f576100dd565b80635c975abb116100bb5780635c975abb14610152578063715018a61461017d57806382367b2d146101945780638da5cb5b146101bd576100dd565b80630ac2e88b146100e25780631874979b1461010b5780634c85b42514610136575b600080fd5b3480156100ee57600080fd5b5061010960048036038101906101049190612220565b61030e565b005b34801561011757600080fd5b50610120610311565b60405161012d9190612266565b60405180910390f35b610150600480360381019061014b91906122df565b610316565b005b34801561015e57600080fd5b50610167610b87565b6040516101749190612327565b60405180910390f35b34801561018957600080fd5b50610192610b9d565b005b3480156101a057600080fd5b506101bb60048036038101906101b6919061236e565b610c25565b005b3480156101c957600080fd5b506101d2610fa2565b6040516101df91906123bd565b60405180910390f35b3480156101f457600080fd5b506101fd610fcb565b60405161020a9190612266565b60405180910390f35b34801561021f57600080fd5b50610228610fd0565b6040516102369291906123d8565b60405180910390f35b34801561024b57600080fd5b506102666004803603810190610261919061243f565b610fe2565b005b34801561027457600080fd5b5061028f600480360381019061028a9190612220565b611acd565b005b34801561029d57600080fd5b506102b860048036038101906102b391906122df565b611ad0565b005b3480156102c657600080fd5b506102e160048036038101906102dc91906122df565b611fcf565b005b3480156102ef57600080fd5b506102f86120c7565b60405161030591906123bd565b60405180910390f35b50565b606181565b6103427f3550c524f2cb10854772db13a5fd866438f56079ade736e3a18a88f928a7eb8960001b61030e565b61036e7f956754f245df61750b3ff715fc1c3460cbbbfc8eb4ccb6d16996c73fc36befd960001b61030e565b61039a7f2d6757ab31c0ba80480bf5f6066feadcbb05d70cbc7e1dc812aeec1ea79bd0b260001b61030e565b6103c67f9b0eaa1a071934308c07b53d6bf020aaacf5da389ea02a17528b92a6dcd1378260001b61030e565b600073ffffffffffffffffffffffffffffffffffffffff16600260009054906101000a900473ffffffffffffffffffffffffffffffffffffffff1673ffffffffffffffffffffffffffffffffffffffff16141561042257600080fd5b61044e7f218bd9c0e7a8096d437f795c416f6143ccbbbbdcf2544b2c874bf58270c6c98060001b61030e565b61047a7f71dedd22c6d2caca739f5541b4e33a1f0b25614a7ba4a750ecd1b48e39b7cf7f60001b61030e565b610482610b87565b156104c2576040517f08c379a00000000000000000000000000000000000000000000000000000000081526004016104b9906124dc565b60405180910390fd5b6104ee7f796d77fcf562295f0f10d6f508906510f7000443f4d4429131b215e40c297ac360001b61030e565b61051a7f3a80db5f6526977462185440b9cd024327e63ab9f5308142bb923b7c7cb5387960001b61030e565b6105467f07a2ca20d819a66be47939373a7468d9dd1829f1dcda642da8dc6e5722013fa160001b61030e565b6105727fb69812bf7f3ca6baf544da48c82b0dc80cd227862e74b80223529eae0aca373560001b61030e565b6000600360000154141561058557600080fd5b6105b17fb32a86dac938085fea28a190aadaaef27a4b742d08d1cc1e9c37f3791b068f2460001b61030e565b6105dd7f90eb1d34e2c916bf1a6d941f8f5052909c1462bf83b8122cd339976169fdf3d560001b61030e565b6106097f6cff9860564cd4da66c70a955ecb9db075a41956fce6d40a7919ad9cd900fb1260001b61030e565b6106357f55b878b7b53dc1adf9370e2115726b28580826d40968c00c72cc977aabf2b36460001b61030e565b6000600360010154141561064857600080fd5b6106747fecda94b4763151d2030d1bbab75ca430d643b0adb4b704349e072bf04550d1ac60001b61030e565b6106a07f0ded886e6779651c0029827db614b0119f2407ed0924d065c08037eed4b099ff60001b61030e565b806106cd7f2f8f4f3392bf5bb5a62f72a84576a1d7c68ffef17e09683aa95c71173d11f84660001b61030e565b6106f97f98b2b987b3fb75496a5443b7203b1b450c502d32cbe6764cdc7d4998bf8a234060001b61030e565b6107257fa0576c061658faf0a7e14d3a6d4c5af996418df47a022fb2e8d217e775bc4a7f60001b61030e565b6107517fd654e2ce9b4867acf9c778540e2c464bc9bfa1ae5cf3925d06981307e72dc2d360001b61030e565b600073ffffffffffffffffffffffffffffffffffffffff168173ffffffffffffffffffffffffffffffffffffffff16141561078b57600080fd5b6107b77f65e8faeb08fb0ecc4568afc1f6e5e49d9645212c8aa861803350ed7d3fc5c30960001b61030e565b6107e37fe58beaa39c1ac4f56de9b44eb1c0b85817e6bf2b0439dcf21b73fe1857cea3fd60001b61030e565b61080f7fd2a94c4286628eeaee17ed26eed0920acc20c79a914145d19ec7c35c1db369e460001b61030e565b61083b7f596d02d671e696aa875438f42c11ed15dc211d3477fa9ade5c9e682424ba494460001b61030e565b6108677f92ed6bd842e7759c0c76cd10bcf1c305e484599bcf9406593d57a6244f79193a60001b61030e565b6108937fc4084eb0945ba7c7d5ff34935978b7b79d5ffe5d0d045328b23305b66ff89a4560001b61030e565b60003414156108a157600080fd5b6108cd7f73d43c7b43ab0ed8413aab9dc3f59d963e3f6527445f87ef68dc83d23a49735060001b61030e565b6108f97ffbfdfb4a0721eb2514e9a57f679549665941729a0118137b411659b65c09d2aa60001b61030e565b6109257fd29db7349a4ffd4ebcc7a96744633ff6bf4d7547c1168eac80604636dc39e3e960001b61030e565b6000610956600360010154610948600360000154346120ed90919063ffffffff16565b61210390919063ffffffff16565b90506109847fe678dfb05b6740e084c0cda987e7845450bd4154b03115cb130fdbf70afcc66460001b61030e565b6109b07f806e0ea02cdc04a61b284aaac27641b4ab0ee4560948d39e9d6ab0a0c6095f5360001b61030e565b60006109d960646109cb6061856120ed90919063ffffffff16565b61210390919063ffffffff16565b9050610a077f1deb3926aac06bad1d53a5f4d6ba066e3cb73d3046fb5049adc86c944d1e47ae60001b61030e565b610a337f557d0668ad3cf11ff5b107d07fdaa3e5548430ab43fc9e2334bebef440251c6960001b61030e565b600160009054906101000a900473ffffffffffffffffffffffffffffffffffffffff1673ffffffffffffffffffffffffffffffffffffffff166340c10f1985836040518363ffffffff1660e01b8152600401610a909291906124fc565b600060405180830381600087803b158015610aaa57600080fd5b505af1158015610abe573d6000803e3d6000fd5b50505050610aee7f361518da677ea532ed3867c9f1a7b8b654152075bcab69a7ce3c2fd9452ad73460001b61030e565b610b1a7fa53c4ac6d1b9d5e5071ddcef656ea6b4d50b6fa18dac8aceaae6c943c4755ec360001b61030e565b8373ffffffffffffffffffffffffffffffffffffffff163373ffffffffffffffffffffffffffffffffffffffff167f46661dab58311a6838247afecbee792192b4f27fc8b3e7168c66bc55ec2e404e8334604051610b799291906123d8565b60405180910390a350505050565b60008060149054906101000a900460ff16905090565b610ba5612119565b73ffffffffffffffffffffffffffffffffffffffff16610bc3610fa2565b73ffffffffffffffffffffffffffffffffffffffff1614610c19576040517f08c379a0000000000000000000000000000000000000000000000000000000008152600401610c1090612571565b60405180910390fd5b610c236000612121565b565b610c2d612119565b73ffffffffffffffffffffffffffffffffffffffff16610c4b610fa2565b73ffffffffffffffffffffffffffffffffffffffff1614610ca1576040517f08c379a0000000000000000000000000000000000000000000000000000000008152600401610c9890612571565b60405180910390fd5b610ccd7fb1bbf4f14568cfe1560a4955fa29dc75c32f9f431275089e910cd65788a3557660001b61030e565b610cf97f17425db7abe4330e7265b4014a2737843eced1e75ae58834ee412d46ee7ba74160001b61030e565b610d257f85a68323e72e8df1a3be8681c6a8356f494b5a93d93dc3f9cd731863835ab9ef60001b61030e565b610d517f39a1caad2a61e20d9d9a9a197411e8cd40b287ce5810d49fce7abb2e88efbb7260001b61030e565b6000821415610d5f57600080fd5b610d8b7fd76022a343deac0fdbdec161a87c3a3ac63b5fe854443ad3cfdd44a074b4664a60001b61030e565b610db77f60eb0b96a941e27f44e677c42dfe50a8bef7eea5bd0976354b6d93fd427f287860001b61030e565b610de37f2ec5ffea966171bc7a03f051184ef40bde431951def8491523633102056004db60001b61030e565b610e0f7fbf3db4e5896ae912720ff4943e0d69d4bc2f2aad3eaa8a15e7aea0bbbfe56bd460001b61030e565b6000811415610e1d57600080fd5b610e497f10645719c0c909c42edd270c76f07ceb4453faa21604dedcf931fa1341daa09f60001b61030e565b610e757f34ccf64cddef0bdc3d647673171cbfa57da06d11778e3f380c2f03823d7d6a9f60001b61030e565b610ea17f5e01d9ba8167c1d9539cdf0937bc6fe4ca2da495df969c79e00ab1740e46d07b60001b61030e565b81600360000181905550610ed77f04658548a2f9648fe920f13daa81f533017a72bc633c9f04c9dd266377dd9fd060001b61030e565b610f037f4c937fe3ca58da78f08512bdb96a4f3c4f1c6dd15a4355e340ce4a05fd951c4760001b61030e565b80600360010181905550610f397f27712a6a2b41358da7d178ac55d251c12754335f9a52dd2e4a40b8bc36c076dc60001b61030e565b610f657fb24a8efa120c868660ae50c7a4f7ea784feda643c867b1f0e6a690a3b0b750fa60001b61030e565b7f92664190cca12aca9cd5309d87194bdda75bb51362d71c06e1a6f75c7c7657118282604051610f969291906123d8565b60405180910390a15050565b60008060009054906101000a900473ffffffffffffffffffffffffffffffffffffffff16905090565b606181565b60038060000154908060010154905082565b61100e7f3550c524f2cb10854772db13a5fd866438f56079ade736e3a18a88f928a7eb8960001b61030e565b61103a7f956754f245df61750b3ff715fc1c3460cbbbfc8eb4ccb6d16996c73fc36befd960001b61030e565b6110667f2d6757ab31c0ba80480bf5f6066feadcbb05d70cbc7e1dc812aeec1ea79bd0b260001b61030e565b6110927f9b0eaa1a071934308c07b53d6bf020aaacf5da389ea02a17528b92a6dcd1378260001b61030e565b600073ffffffffffffffffffffffffffffffffffffffff16600260009054906101000a900473ffffffffffffffffffffffffffffffffffffffff1673ffffffffffffffffffffffffffffffffffffffff1614156110ee57600080fd5b61111a7f218bd9c0e7a8096d437f795c416f6143ccbbbbdcf2544b2c874bf58270c6c98060001b61030e565b6111467f71dedd22c6d2caca739f5541b4e33a1f0b25614a7ba4a750ecd1b48e39b7cf7f60001b61030e565b61114e610b87565b1561118e576040517f08c379a0000000000000000000000000000000000000000000000000000000008152600401611185906124dc565b60405180910390fd5b6111ba7f796d77fcf562295f0f10d6f508906510f7000443f4d4429131b215e40c297ac360001b61030e565b6111e67f3a80db5f6526977462185440b9cd024327e63ab9f5308142bb923b7c7cb5387960001b61030e565b6112127f07a2ca20d819a66be47939373a7468d9dd1829f1dcda642da8dc6e5722013fa160001b61030e565b61123e7fb69812bf7f3ca6baf544da48c82b0dc80cd227862e74b80223529eae0aca373560001b61030e565b6000600360000154141561125157600080fd5b61127d7fb32a86dac938085fea28a190aadaaef27a4b742d08d1cc1e9c37f3791b068f2460001b61030e565b6112a97f90eb1d34e2c916bf1a6d941f8f5052909c1462bf83b8122cd339976169fdf3d560001b61030e565b6112d57f6cff9860564cd4da66c70a955ecb9db075a41956fce6d40a7919ad9cd900fb1260001b61030e565b6113017f55b878b7b53dc1adf9370e2115726b28580826d40968c00c72cc977aabf2b36460001b61030e565b6000600360010154141561131457600080fd5b6113407fecda94b4763151d2030d1bbab75ca430d643b0adb4b704349e072bf04550d1ac60001b61030e565b61136c7f0ded886e6779651c0029827db614b0119f2407ed0924d065c08037eed4b099ff60001b61030e565b816113997f2f8f4f3392bf5bb5a62f72a84576a1d7c68ffef17e09683aa95c71173d11f84660001b61030e565b6113c57f98b2b987b3fb75496a5443b7203b1b450c502d32cbe6764cdc7d4998bf8a234060001b61030e565b6113f17fa0576c061658faf0a7e14d3a6d4c5af996418df47a022fb2e8d217e775bc4a7f60001b61030e565b61141d7fd654e2ce9b4867acf9c778540e2c464bc9bfa1ae5cf3925d06981307e72dc2d360001b61030e565b600073ffffffffffffffffffffffffffffffffffffffff168173ffffffffffffffffffffffffffffffffffffffff16141561145757600080fd5b6114837f65e8faeb08fb0ecc4568afc1f6e5e49d9645212c8aa861803350ed7d3fc5c30960001b61030e565b6114af7fe58beaa39c1ac4f56de9b44eb1c0b85817e6bf2b0439dcf21b73fe1857cea3fd60001b61030e565b6114db7fd02ab5bf53203d4fb73e41de716c1424bacc0eeb33208ae749f3f7404addfb2260001b61030e565b6115077f4eb9c20ea6c36968d4ff378d00a2b710449da5b9cf42d0c8992b89f644267b7260001b61030e565b6115337f40db17aa59bcc601c6c72f4a69ead4ed835226cc2b0b5376ee69cf3f5d0402d160001b61030e565b61155f7fb771379a6f794407eca98ed2b49a0947cbe3bb93479379894cdf570b294ec81f60001b61030e565b600082141561156d57600080fd5b6115997f4dc071c19a6b761f0f89c142af7415025534fab1cc39845a8a1689a3851afb7860001b61030e565b6115c57f4f3caf1801078810ee7082dddd445dadc8044ac422d1c66b7a5cc1ea2e53c0c960001b61030e565b6115f17fc4219864a7a3ac0b86d29060be15e348457e7787e02a58a44e9565e6034e35cc60001b61030e565b60003390506116227f8d8813a4578531bc2221ad08215163942ddb9288abb74f24bf4db5f13086a25160001b61030e565b61164e7fea33786d37743c6ea82d363be0af0d0ff35aa3391197dafcd295421c79d941e960001b61030e565b600061167f600360000154611671866003600101546120ed90919063ffffffff16565b61210390919063ffffffff16565b90506116ad7fd80a1d78e7b3cc910ffc5c5acc614b92b3c36c5711eb82b1b59b2e10f352f56860001b61030e565b6116d97ff40b05994365e6a8f0d6ae05cde7eaf313eb92fb75129c94007ad97fa37cf39960001b61030e565b600061170260646116f46061856120ed90919063ffffffff16565b61210390919063ffffffff16565b90506117307f0c375953962b58463cffa48d271c54b488cf049b5300ede195dab22a010c7c2660001b61030e565b61175c7f44535c6532fc01a92f0252182c58b59c89942f629135fb4b0ba24c7199a0e8ce60001b61030e565b8047106119d95761178f7f06667908d4e92794cec373a5f185897b3b04e69c77ea76bc6f4351dafe26e85b60001b61030e565b6117bb7f1418e3726d78a9293bc7579a46cbb6ec582902f98ce55d4dff609ef74a816b3d60001b61030e565b6117e77fcf3ca25b265bb238f4e8760c5f3c1600f9506c27b0550587954a49e137cd9bd260001b61030e565b600160009054906101000a900473ffffffffffffffffffffffffffffffffffffffff1673ffffffffffffffffffffffffffffffffffffffff16639dc29fac84876040518363ffffffff1660e01b81526004016118449291906124fc565b600060405180830381600087803b15801561185e57600080fd5b505af1158015611872573d6000803e3d6000fd5b505050506118a27fca6774de1504adedf6dd8077680e6e7bd43faf0d6b94c9e10f8da7ee8c819c3860001b61030e565b6118ce7f3273975944ec7be200e1f5d70c794ca958c40920fa4cab41b44339cac38102b660001b61030e565b8573ffffffffffffffffffffffffffffffffffffffff166108fc829081150290604051600060405180830381858888f19350505050158015611914573d6000803e3d6000fd5b506119417f26b333b2c28a8ccb64d644bc39716e19a37acb4288235cf0d8e0fa97d78348dc60001b61030e565b61196d7f796fcc6253bff3056b7e8f943d7767070c631211bfb7acee97926a9eaaa0d71c60001b61030e565b8573ffffffffffffffffffffffffffffffffffffffff168373ffffffffffffffffffffffffffffffffffffffff167fc2b4a290c20fb28939d29f102514fbffd2b73c059ffba8b78250c94161d5fcc687846040516119cc9291906123d8565b60405180910390a3611ac5565b611a057f86858cf5029adff26fd77667949814ace656cd8b481d2f51c814c2010648212160001b61030e565b611a317fdc7d6c144b976af9e7b9dfea5857cf6d6859a71c5bee3fec85323cf271e9dbd660001b61030e565b611a5d7f222ba23a2e9524e142887e0f89af0b947a1faf729ee2c4a36c6fb09abc46c4ab60001b61030e565b8573ffffffffffffffffffffffffffffffffffffffff168373ffffffffffffffffffffffffffffffffffffffff167fedc433769a950fd5882705ec0185de2a8cd2c97eb5d2c01a01c57827fb16b2978784604051611abc9291906123d8565b60405180910390a35b505050505050565b50565b611ad8612119565b73ffffffffffffffffffffffffffffffffffffffff16611af6610fa2565b73ffffffffffffffffffffffffffffffffffffffff1614611b4c576040517f08c379a0000000000000000000000000000000000000000000000000000000008152600401611b4390612571565b60405180910390fd5b80611b797f2f8f4f3392bf5bb5a62f72a84576a1d7c68ffef17e09683aa95c71173d11f84660001b61030e565b611ba57f98b2b987b3fb75496a5443b7203b1b450c502d32cbe6764cdc7d4998bf8a234060001b61030e565b611bd17fa0576c061658faf0a7e14d3a6d4c5af996418df47a022fb2e8d217e775bc4a7f60001b61030e565b611bfd7fd654e2ce9b4867acf9c778540e2c464bc9bfa1ae5cf3925d06981307e72dc2d360001b61030e565b600073ffffffffffffffffffffffffffffffffffffffff168173ffffffffffffffffffffffffffffffffffffffff161415611c3757600080fd5b611c637f65e8faeb08fb0ecc4568afc1f6e5e49d9645212c8aa861803350ed7d3fc5c30960001b61030e565b611c8f7fe58beaa39c1ac4f56de9b44eb1c0b85817e6bf2b0439dcf21b73fe1857cea3fd60001b61030e565b611cbb7fe5f1c947067ca321d2123eeef95425f741072e466f3d446787df03620e8a4cbd60001b61030e565b611ce77f667ace57f468b0576efc7d23333be375c7f8e77b8b5a410ad4f670c03f0b2c1860001b61030e565b611d137fa46f2dfff71b17fb9337799a9d73bcbe1a94708b2beccf77e9ce3a81047423d160001b61030e565b611d3f7fe159f0d9c6bd461aab55ce570e7f1ea59ce2caba5c33d6efdd2277693574507460001b61030e565b600073ffffffffffffffffffffffffffffffffffffffff16600260009054906101000a900473ffffffffffffffffffffffffffffffffffffffff1673ffffffffffffffffffffffffffffffffffffffff1614611d9a57600080fd5b611dc67fc5aaa7b22507116fcc46bd1f5f86dda1cf8f401cb7c11a0e92027f62af1152a160001b61030e565b611df27f53292d60afaa0e216d44de3126c5966cf2dc07b639478bd2d7d6e104c23f697a60001b61030e565b611e1e7f1a15c1299de89cf63833a995723e0f3ed84c4f6e795afb7896f173b28b68c81860001b61030e565b81600260006101000a81548173ffffffffffffffffffffffffffffffffffffffff021916908373ffffffffffffffffffffffffffffffffffffffff160217905550611e8b7f1a711ecf8e9add52c0f73fcfd893c90843c3891527400847092f51d3c047fae260001b61030e565b611eb77f1ebd8b3bdbf15a8e978549f18cd36dc44fd1c38702184cf07d525e29c4e1b7f460001b61030e565b600260009054906101000a900473ffffffffffffffffffffffffffffffffffffffff16600160006101000a81548173ffffffffffffffffffffffffffffffffffffffff021916908373ffffffffffffffffffffffffffffffffffffffff160217905550611f467f38150f619decce882cc35f64100b6cda6690f07b5b70b66577a70bbd9fd11a7360001b61030e565b611f727f4f4aab93786744149169363f2050888ab43a261a59676b8ef8568e2d79ee045960001b61030e565b7f8c8ebf0419c2606f1d3f19aa47ccba3ba2d744b95fd72ab51cc0873957ecf1b0600260009054906101000a900473ffffffffffffffffffffffffffffffffffffffff16604051611fc391906123bd565b60405180910390a15050565b611fd7612119565b73ffffffffffffffffffffffffffffffffffffffff16611ff5610fa2565b73ffffffffffffffffffffffffffffffffffffffff161461204b576040517f08c379a000000000000000000000000000000000000000000000000000000000815260040161204290612571565b60405180910390fd5b600073ffffffffffffffffffffffffffffffffffffffff168173ffffffffffffffffffffffffffffffffffffffff1614156120bb576040517f08c379a00000000000000000000000000000000000000000000000000000000081526004016120b290612603565b60405180910390fd5b6120c481612121565b50565b600260009054906101000a900473ffffffffffffffffffffffffffffffffffffffff1681565b600081836120fb9190612652565b905092915050565b6000818361211191906126db565b905092915050565b600033905090565b60008060009054906101000a900473ffffffffffffffffffffffffffffffffffffffff169050816000806101000a81548173ffffffffffffffffffffffffffffffffffffffff021916908373ffffffffffffffffffffffffffffffffffffffff1602179055508173ffffffffffffffffffffffffffffffffffffffff168173ffffffffffffffffffffffffffffffffffffffff167f8be0079c531659141344cd1fd0a4f28419497f9722a3daafe3b4186f6b6457e060405160405180910390a35050565b600080fd5b6000819050919050565b6121fd816121ea565b811461220857600080fd5b50565b60008135905061221a816121f4565b92915050565b600060208284031215612236576122356121e5565b5b60006122448482850161220b565b91505092915050565b6000819050919050565b6122608161224d565b82525050565b600060208201905061227b6000830184612257565b92915050565b600073ffffffffffffffffffffffffffffffffffffffff82169050919050565b60006122ac82612281565b9050919050565b6122bc816122a1565b81146122c757600080fd5b50565b6000813590506122d9816122b3565b92915050565b6000602082840312156122f5576122f46121e5565b5b6000612303848285016122ca565b91505092915050565b60008115159050919050565b6123218161230c565b82525050565b600060208201905061233c6000830184612318565b92915050565b61234b8161224d565b811461235657600080fd5b50565b60008135905061236881612342565b92915050565b60008060408385031215612385576123846121e5565b5b600061239385828601612359565b92505060206123a485828601612359565b9150509250929050565b6123b7816122a1565b82525050565b60006020820190506123d260008301846123ae565b92915050565b60006040820190506123ed6000830185612257565b6123fa6020830184612257565b9392505050565b600061240c82612281565b9050919050565b61241c81612401565b811461242757600080fd5b50565b60008135905061243981612413565b92915050565b60008060408385031215612456576124556121e5565b5b60006124648582860161242a565b925050602061247585828601612359565b9150509250929050565b600082825260208201905092915050565b7f5061757361626c653a2070617573656400000000000000000000000000000000600082015250565b60006124c660108361247f565b91506124d182612490565b602082019050919050565b600060208201905081810360008301526124f5816124b9565b9050919050565b600060408201905061251160008301856123ae565b61251e6020830184612257565b9392505050565b7f4f776e61626c653a2063616c6c6572206973206e6f7420746865206f776e6572600082015250565b600061255b60208361247f565b915061256682612525565b602082019050919050565b6000602082019050818103600083015261258a8161254e565b9050919050565b7f4f776e61626c653a206e6577206f776e657220697320746865207a65726f206160008201527f6464726573730000000000000000000000000000000000000000000000000000602082015250565b60006125ed60268361247f565b91506125f882612591565b604082019050919050565b6000602082019050818103600083015261261c816125e0565b9050919050565b7f4e487b7100000000000000000000000000000000000000000000000000000000600052601160045260246000fd5b600061265d8261224d565b91506126688361224d565b9250817fffffffffffffffffffffffffffffffffffffffffffffffffffffffffffffffff04831182151516156126a1576126a0612623565b5b828202905092915050565b7f4e487b7100000000000000000000000000000000000000000000000000000000600052601260045260246000fd5b60006126e68261224d565b91506126f18361224d565b925082612701576127006126ac565b5b82820490509291505056fea264697066735822122030fc908ebd108c98c2fb5d4f143423dea72bdccdfdd9a995e5fd1808582acae064736f6c63430008090033",
  "linkReferences": {},
  "deployedLinkReferences": {}
}