{
  "_format": "hh-sol-artifact-1",
  "contractName": "MetaverseFundOperator",
  "sourceName": "contracts/MetaverseFundOperator.sol",
  "abi": [
    {
      "inputs": [],
      "stateMutability": "nonpayable",
      "type": "constructor"
    },
    {
      "inputs": [
        {
          "internalType": "bytes32",
          "name": "c__0x81c759e8",
          "type": "bytes32"
        }
      ],
      "name": "c_0x81c759e8",
      "outputs": [],
      "stateMutability": "pure",
      "type": "function"
    }
  ],
  "bytecode": "0x608060405234801561001057600080fd5b506100437f0d2aa0cddb213df8335e3639c6a6fe7cbeab7935ca3afbc3427cb93b3f72521560001b61004860201b60201c565b61004b565b50565b60dc806100596000396000f3fe6080604052348015600f57600080fd5b506004361060285760003560e01c80634d13b8f114602d575b600080fd5b60436004803603810190603f9190607e565b6045565b005b50565b600080fd5b6000819050919050565b605e81604d565b8114606857600080fd5b50565b6000813590506078816057565b92915050565b60006020828403121560915760906048565b5b6000609d84828501606b565b9150509291505056fea26469706673582212205a60fc72f546ab6f144a5bf6d8cd0bd868a7b09cd2fe1290e7c4e8cc8f272f1964736f6c63430008090033",
  "linkReferences": {},
  "deployedLinkReferences": {}
}