{
  "_format": "hh-sol-artifact-1",
  "contractName": "MetaverseFundToken",
  "sourceName": "contracts/MetaverseFundToken.sol",
  "abi": [
    {
      "inputs": [],
      "stateMutability": "nonpayable",
      "type": "constructor"
    },
    {
      "anonymous": false,
      "inputs": [
        {
          "indexed": true,
          "internalType": "address",
          "name": "owner",
          "type": "address"
        },
        {
          "indexed": true,
          "internalType": "address",
          "name": "spender",
          "type": "address"
        },
        {
          "indexed": false,
          "internalType": "uint256",
          "name": "value",
          "type": "uint256"
        }
      ],
      "name": "Approval",
      "type": "event"
    },
    {
      "anonymous": false,
      "inputs": [
        {
          "indexed": true,
          "internalType": "bytes32",
          "name": "role",
          "type": "bytes32"
        },
        {
          "indexed": true,
          "internalType": "bytes32",
          "name": "previousAdminRole",
          "type": "bytes32"
        },
        {
          "indexed": true,
          "internalType": "bytes32",
          "name": "newAdminRole",
          "type": "bytes32"
        }
      ],
      "name": "RoleAdminChanged",
      "type": "event"
    },
    {
      "anonymous": false,
      "inputs": [
        {
          "indexed": true,
          "internalType": "bytes32",
          "name": "role",
          "type": "bytes32"
        },
        {
          "indexed": true,
          "internalType": "address",
          "name": "account",
          "type": "address"
        },
        {
          "indexed": true,
          "internalType": "address",
          "name": "sender",
          "type": "address"
        }
      ],
      "name": "RoleGranted",
      "type": "event"
    },
    {
      "anonymous": false,
      "inputs": [
        {
          "indexed": true,
          "internalType": "bytes32",
          "name": "role",
          "type": "bytes32"
        },
        {
          "indexed": true,
          "internalType": "address",
          "name": "account",
          "type": "address"
        },
        {
          "indexed": true,
          "internalType": "address",
          "name": "sender",
          "type": "address"
        }
      ],
      "name": "RoleRevoked",
      "type": "event"
    },
    {
      "anonymous": false,
      "inputs": [
        {
          "indexed": true,
          "internalType": "address",
          "name": "from",
          "type": "address"
        },
        {
          "indexed": true,
          "internalType": "address",
          "name": "to",
          "type": "address"
        },
        {
          "indexed": false,
          "internalType": "uint256",
          "name": "value",
          "type": "uint256"
        }
      ],
      "name": "Transfer",
      "type": "event"
    },
    {
      "inputs": [],
      "name": "ADMIN_ROLE",
      "outputs": [
        {
          "internalType": "bytes32",
          "name": "",
          "type": "bytes32"
        }
      ],
      "stateMutability": "view",
      "type": "function"
    },
    {
      "inputs": [],
      "name": "DEFAULT_ADMIN_ROLE",
      "outputs": [
        {
          "internalType": "bytes32",
          "name": "",
          "type": "bytes32"
        }
      ],
      "stateMutability": "view",
      "type": "function"
    },
    {
      "inputs": [
        {
          "internalType": "address",
          "name": "owner",
          "type": "address"
        },
        {
          "internalType": "address",
          "name": "spender",
          "type": "address"
        }
      ],
      "name": "allowance",
      "outputs": [
        {
          "internalType": "uint256",
          "name": "",
          "type": "uint256"
        }
      ],
      "stateMutability": "view",
      "type": "function"
    },
    {
      "inputs": [
        {
          "internalType": "address",
          "name": "spender",
          "type": "address"
        },
        {
          "internalType": "uint256",
          "name": "amount",
          "type": "uint256"
        }
      ],
      "name": "approve",
      "outputs": [
        {
          "internalType": "bool",
          "name": "",
          "type": "bool"
        }
      ],
      "stateMutability": "nonpayable",
      "type": "function"
    },
    {
      "inputs": [
        {
          "internalType": "address",
          "name": "account",
          "type": "address"
        }
      ],
      "name": "balanceOf",
      "outputs": [
        {
          "internalType": "uint256",
          "name": "",
          "type": "uint256"
        }
      ],
      "stateMutability": "view",
      "type": "function"
    },
    {
      "inputs": [
        {
          "internalType": "address",
          "name": "account",
          "type": "address"
        },
        {
          "internalType": "uint256",
          "name": "amount",
          "type": "uint256"
        }
      ],
      "name": "burn",
      "outputs": [],
      "stateMutability": "nonpayable",
      "type": "function"
    },
    {
      "inputs": [
        {
          "internalType": "bytes32",
          "name": "c__0xc135a0f2",
          "type": "bytes32"
        }
      ],
      "name": "c_0xc135a0f2",
      "outputs": [],
      "stateMutability": "pure",
      "type": "function"
    },
    {
      "inputs": [],
      "name": "decimals",
      "outputs": [
        {
          "internalType": "uint8",
          "name": "",
          "type": "uint8"
        }
      ],
      "stateMutability": "view",
      "type": "function"
    },
    {
      "inputs": [
        {
          "internalType": "address",
          "name": "spender",
          "type": "address"
        },
        {
          "internalType": "uint256",
          "name": "subtractedValue",
          "type": "uint256"
        }
      ],
      "name": "decreaseAllowance",
      "outputs": [
        {
          "internalType": "bool",
          "name": "",
          "type": "bool"
        }
      ],
      "stateMutability": "nonpayable",
      "type": "function"
    },
    {
      "inputs": [
        {
          "internalType": "bytes32",
          "name": "role",
          "type": "bytes32"
        }
      ],
      "name": "getRoleAdmin",
      "outputs": [
        {
          "internalType": "bytes32",
          "name": "",
          "type": "bytes32"
        }
      ],
      "stateMutability": "view",
      "type": "function"
    },
    {
      "inputs": [
        {
          "internalType": "bytes32",
          "name": "role",
          "type": "bytes32"
        },
        {
          "internalType": "address",
          "name": "account",
          "type": "address"
        }
      ],
      "name": "grantRole",
      "outputs": [],
      "stateMutability": "nonpayable",
      "type": "function"
    },
    {
      "inputs": [
        {
          "internalType": "bytes32",
          "name": "role",
          "type": "bytes32"
        },
        {
          "internalType": "address",
          "name": "account",
          "type": "address"
        }
      ],
      "name": "hasRole",
      "outputs": [
        {
          "internalType": "bool",
          "name": "",
          "type": "bool"
        }
      ],
      "stateMutability": "view",
      "type": "function"
    },
    {
      "inputs": [
        {
          "internalType": "address",
          "name": "spender",
          "type": "address"
        },
        {
          "internalType": "uint256",
          "name": "addedValue",
          "type": "uint256"
        }
      ],
      "name": "increaseAllowance",
      "outputs": [
        {
          "internalType": "bool",
          "name": "",
          "type": "bool"
        }
      ],
      "stateMutability": "nonpayable",
      "type": "function"
    },
    {
      "inputs": [
        {
          "internalType": "address",
          "name": "account",
          "type": "address"
        },
        {
          "internalType": "uint256",
          "name": "amount",
          "type": "uint256"
        }
      ],
      "name": "mint",
      "outputs": [],
      "stateMutability": "nonpayable",
      "type": "function"
    },
    {
      "inputs": [],
      "name": "name",
      "outputs": [
        {
          "internalType": "string",
          "name": "",
          "type": "string"
        }
      ],
      "stateMutability": "view",
      "type": "function"
    },
    {
      "inputs": [
        {
          "internalType": "bytes32",
          "name": "role",
          "type": "bytes32"
        },
        {
          "internalType": "address",
          "name": "account",
          "type": "address"
        }
      ],
      "name": "renounceRole",
      "outputs": [],
      "stateMutability": "nonpayable",
      "type": "function"
    },
    {
      "inputs": [
        {
          "internalType": "bytes32",
          "name": "role",
          "type": "bytes32"
        },
        {
          "internalType": "address",
          "name": "account",
          "type": "address"
        }
      ],
      "name": "revokeRole",
      "outputs": [],
      "stateMutability": "nonpayable",
      "type": "function"
    },
    {
      "inputs": [
        {
          "internalType": "bytes4",
          "name": "interfaceId",
          "type": "bytes4"
        }
      ],
      "name": "supportsInterface",
      "outputs": [
        {
          "internalType": "bool",
          "name": "",
          "type": "bool"
        }
      ],
      "stateMutability": "view",
      "type": "function"
    },
    {
      "inputs": [],
      "name": "symbol",
      "outputs": [
        {
          "internalType": "string",
          "name": "",
          "type": "string"
        }
      ],
      "stateMutability": "view",
      "type": "function"
    },
    {
      "inputs": [],
      "name": "totalSupply",
      "outputs": [
        {
          "internalType": "uint256",
          "name": "",
          "type": "uint256"
        }
      ],
      "stateMutability": "view",
      "type": "function"
    },
    {
      "inputs": [
        {
          "internalType": "address",
          "name": "recipient",
          "type": "address"
        },
        {
          "internalType": "uint256",
          "name": "amount",
          "type": "uint256"
        }
      ],
      "name": "transfer",
      "outputs": [
        {
          "internalType": "bool",
          "name": "",
          "type": "bool"
        }
      ],
      "stateMutability": "nonpayable",
      "type": "function"
    },
    {
      "inputs": [
        {
          "internalType": "address",
          "name": "sender",
          "type": "address"
        },
        {
          "internalType": "address",
          "name": "recipient",
          "type": "address"
        },
        {
          "internalType": "uint256",
          "name": "amount",
          "type": "uint256"
        }
      ],
      "name": "transferFrom",
      "outputs": [
        {
          "internalType": "bool",
          "name": "",
          "type": "bool"
        }
      ],
      "stateMutability": "nonpayable",
      "type": "function"
    }
  ],
  "bytecode": "0x60806040523480156200001157600080fd5b506040518060400160405280601481526020017f4d65746176657273652046756e6420546f6b656e0000000000000000000000008152506040518060400160405280600381526020017f4d46540000000000000000000000000000000000000000000000000000000000815250816003908051906020019062000096929190620000ef565b508060049080519060200190620000af929190620000ef565b505050620000e67f12333165e53c1786c90e0a5dd7ed5d3f9caca8abcf72714636afa30c471a037560001b620000ec60201b60201c565b62000204565b50565b828054620000fd90620001ce565b90600052602060002090601f0160209004810192826200012157600085556200016d565b82601f106200013c57805160ff19168380011785556200016d565b828001600101855582156200016d579182015b828111156200016c5782518255916020019190600101906200014f565b5b5090506200017c919062000180565b5090565b5b808211156200019b57600081600090555060010162000181565b5090565b7f4e487b7100000000000000000000000000000000000000000000000000000000600052602260045260246000fd5b60006002820490506001821680620001e757607f821691505b60208210811415620001fe57620001fd6200019f565b5b50919050565b61278980620002146000396000f3fe608060405234801561001057600080fd5b50600436106101425760003560e01c806370a08231116100b8578063a217fddf1161007c578063a217fddf1461039d578063a43cc167146103bb578063a457c2d7146103d7578063a9059cbb14610407578063d547741f14610437578063dd62ed3e1461045357610142565b806370a08231146102e557806375b238fc1461031557806391d148541461033357806395d89b41146103635780639dc29fac1461038157610142565b8063248a9ca31161010a578063248a9ca3146102135780632f2ff15d14610243578063313ce5671461025f57806336568abe1461027d578063395093511461029957806340c10f19146102c957610142565b806301ffc9a71461014757806306fdde0314610177578063095ea7b31461019557806318160ddd146101c557806323b872dd146101e3575b600080fd5b610161600480360381019061015c919061197c565b610483565b60405161016e91906119c4565b60405180910390f35b61017f6104fd565b60405161018c9190611a78565b60405180910390f35b6101af60048036038101906101aa9190611b2e565b61058f565b6040516101bc91906119c4565b60405180910390f35b6101cd6105ad565b6040516101da9190611b7d565b60405180910390f35b6101fd60048036038101906101f89190611b98565b6105b7565b60405161020a91906119c4565b60405180910390f35b61022d60048036038101906102289190611c21565b6106af565b60405161023a9190611c5d565b60405180910390f35b61025d60048036038101906102589190611c78565b6106cf565b005b6102676106f8565b6040516102749190611cd4565b60405180910390f35b61029760048036038101906102929190611c78565b610701565b005b6102b360048036038101906102ae9190611b2e565b610784565b6040516102c091906119c4565b60405180910390f35b6102e360048036038101906102de9190611b2e565b610830565b005b6102ff60048036038101906102fa9190611cef565b6108c2565b60405161030c9190611b7d565b60405180910390f35b61031d61090a565b60405161032a9190611c5d565b60405180910390f35b61034d60048036038101906103489190611c78565b610932565b60405161035a91906119c4565b60405180910390f35b61036b61099d565b6040516103789190611a78565b60405180910390f35b61039b60048036038101906103969190611b2e565b610a2f565b005b6103a5610ac1565b6040516103b29190611c5d565b60405180910390f35b6103d560048036038101906103d09190611c21565b610ac8565b005b6103f160048036038101906103ec9190611b2e565b610acb565b6040516103fe91906119c4565b60405180910390f35b610421600480360381019061041c9190611b2e565b610bb6565b60405161042e91906119c4565b60405180910390f35b610451600480360381019061044c9190611c78565b610bd4565b005b61046d60048036038101906104689190611d1c565b610bfd565b60405161047a9190611b7d565b60405180910390f35b60007f7965db0b000000000000000000000000000000000000000000000000000000007bffffffffffffffffffffffffffffffffffffffffffffffffffffffff1916827bffffffffffffffffffffffffffffffffffffffffffffffffffffffff191614806104f657506104f582610c84565b5b9050919050565b60606003805461050c90611d8b565b80601f016020809104026020016040519081016040528092919081815260200182805461053890611d8b565b80156105855780601f1061055a57610100808354040283529160200191610585565b820191906000526020600020905b81548152906001019060200180831161056857829003601f168201915b5050505050905090565b60006105a361059c610cee565b8484610cf6565b6001905092915050565b6000600254905090565b60006105c4848484610ec1565b6000600160008673ffffffffffffffffffffffffffffffffffffffff1673ffffffffffffffffffffffffffffffffffffffff168152602001908152602001600020600061060f610cee565b73ffffffffffffffffffffffffffffffffffffffff1673ffffffffffffffffffffffffffffffffffffffff1681526020019081526020016000205490508281101561068f576040517f08c379a000000000000000000000000000000000000000000000000000000000815260040161068690611e2f565b60405180910390fd5b6106a38561069b610cee565b858403610cf6565b60019150509392505050565b600060056000838152602001908152602001600020600101549050919050565b6106d8826106af565b6106e9816106e4610cee565b611142565b6106f383836111df565b505050565b60006012905090565b610709610cee565b73ffffffffffffffffffffffffffffffffffffffff168173ffffffffffffffffffffffffffffffffffffffff1614610776576040517f08c379a000000000000000000000000000000000000000000000000000000000815260040161076d90611ec1565b60405180910390fd5b61078082826112c0565b5050565b6000610826610791610cee565b84846001600061079f610cee565b73ffffffffffffffffffffffffffffffffffffffff1673ffffffffffffffffffffffffffffffffffffffff16815260200190815260200160002060008873ffffffffffffffffffffffffffffffffffffffff1673ffffffffffffffffffffffffffffffffffffffff168152602001908152602001600020546108219190611f10565b610cf6565b6001905092915050565b61085c7f3aa84842cdc31da09495561f6be80516af14844e50c2dd3ac8a17c76d6a43bb660001b610ac8565b6108887fafd9b6f9adac836fadff205814407858214426093477ec72ff785c367a0e576860001b610ac8565b6108b47f9090529274337c4a7d54d26c52c8e1d11567e64615c768d6b4548c8b83def16660001b610ac8565b6108be82826113a2565b5050565b60008060008373ffffffffffffffffffffffffffffffffffffffff1673ffffffffffffffffffffffffffffffffffffffff168152602001908152602001600020549050919050565b60405160200161091990611fbd565b6040516020818303038152906040528051906020012081565b60006005600084815260200190815260200160002060000160008373ffffffffffffffffffffffffffffffffffffffff1673ffffffffffffffffffffffffffffffffffffffff16815260200190815260200160002060009054906101000a900460ff16905092915050565b6060600480546109ac90611d8b565b80601f01602080910402602001604051908101604052809291908181526020018280546109d890611d8b565b8015610a255780601f106109fa57610100808354040283529160200191610a25565b820191906000526020600020905b815481529060010190602001808311610a0857829003601f168201915b5050505050905090565b610a5b7f988aa160be4d707515120351989231695d75a0f07a96afc40d0729cc1e7b294a60001b610ac8565b610a877f1f08ba8155c248ce44a4e5e9fdabcf714019d9493b7291b994e486646ed3b90e60001b610ac8565b610ab37f19bc9da5c01218b7af9800abaf85fe951569aa5b9f08fac10e814317c52d04b160001b610ac8565b610abd8282611502565b5050565b6000801b81565b50565b60008060016000610ada610cee565b73ffffffffffffffffffffffffffffffffffffffff1673ffffffffffffffffffffffffffffffffffffffff16815260200190815260200160002060008573ffffffffffffffffffffffffffffffffffffffff1673ffffffffffffffffffffffffffffffffffffffff16815260200190815260200160002054905082811015610b97576040517f08c379a0000000000000000000000000000000000000000000000000000000008152600401610b8e90612044565b60405180910390fd5b610bab610ba2610cee565b85858403610cf6565b600191505092915050565b6000610bca610bc3610cee565b8484610ec1565b6001905092915050565b610bdd826106af565b610bee81610be9610cee565b611142565b610bf883836112c0565b505050565b6000600160008473ffffffffffffffffffffffffffffffffffffffff1673ffffffffffffffffffffffffffffffffffffffff16815260200190815260200160002060008373ffffffffffffffffffffffffffffffffffffffff1673ffffffffffffffffffffffffffffffffffffffff16815260200190815260200160002054905092915050565b60007f01ffc9a7000000000000000000000000000000000000000000000000000000007bffffffffffffffffffffffffffffffffffffffffffffffffffffffff1916827bffffffffffffffffffffffffffffffffffffffffffffffffffffffff1916149050919050565b600033905090565b600073ffffffffffffffffffffffffffffffffffffffff168373ffffffffffffffffffffffffffffffffffffffff161415610d66576040517f08c379a0000000000000000000000000000000000000000000000000000000008152600401610d5d906120d6565b60405180910390fd5b600073ffffffffffffffffffffffffffffffffffffffff168273ffffffffffffffffffffffffffffffffffffffff161415610dd6576040517f08c379a0000000000000000000000000000000000000000000000000000000008152600401610dcd90612168565b60405180910390fd5b80600160008573ffffffffffffffffffffffffffffffffffffffff1673ffffffffffffffffffffffffffffffffffffffff16815260200190815260200160002060008473ffffffffffffffffffffffffffffffffffffffff1673ffffffffffffffffffffffffffffffffffffffff168152602001908152602001600020819055508173ffffffffffffffffffffffffffffffffffffffff168373ffffffffffffffffffffffffffffffffffffffff167f8c5be1e5ebec7d5bd14f71427d1e84f3dd0314c0f7b2291e5b200ac8c7c3b92583604051610eb49190611b7d565b60405180910390a3505050565b600073ffffffffffffffffffffffffffffffffffffffff168373ffffffffffffffffffffffffffffffffffffffff161415610f31576040517f08c379a0000000000000000000000000000000000000000000000000000000008152600401610f28906121fa565b60405180910390fd5b600073ffffffffffffffffffffffffffffffffffffffff168273ffffffffffffffffffffffffffffffffffffffff161415610fa1576040517f08c379a0000000000000000000000000000000000000000000000000000000008152600401610f989061228c565b60405180910390fd5b610fac8383836116d9565b60008060008573ffffffffffffffffffffffffffffffffffffffff1673ffffffffffffffffffffffffffffffffffffffff16815260200190815260200160002054905081811015611032576040517f08c379a00000000000000000000000000000000000000000000000000000000081526004016110299061231e565b60405180910390fd5b8181036000808673ffffffffffffffffffffffffffffffffffffffff1673ffffffffffffffffffffffffffffffffffffffff16815260200190815260200160002081905550816000808573ffffffffffffffffffffffffffffffffffffffff1673ffffffffffffffffffffffffffffffffffffffff16815260200190815260200160002060008282546110c59190611f10565b925050819055508273ffffffffffffffffffffffffffffffffffffffff168473ffffffffffffffffffffffffffffffffffffffff167fddf252ad1be2c89b69c2b068fc378daa952ba7f163c4a11628f55a4df523b3ef846040516111299190611b7d565b60405180910390a361113c8484846116de565b50505050565b61114c8282610932565b6111db576111718173ffffffffffffffffffffffffffffffffffffffff1660146116e3565b61117f8360001c60206116e3565b604051602001611190929190612407565b6040516020818303038152906040526040517f08c379a00000000000000000000000000000000000000000000000000000000081526004016111d29190611a78565b60405180910390fd5b5050565b6111e98282610932565b6112bc5760016005600084815260200190815260200160002060000160008373ffffffffffffffffffffffffffffffffffffffff1673ffffffffffffffffffffffffffffffffffffffff16815260200190815260200160002060006101000a81548160ff021916908315150217905550611261610cee565b73ffffffffffffffffffffffffffffffffffffffff168173ffffffffffffffffffffffffffffffffffffffff16837f2f8788117e7eff1d82e926ec794901d17c78024a50270940304540a733656f0d60405160405180910390a45b5050565b6112ca8282610932565b1561139e5760006005600084815260200190815260200160002060000160008373ffffffffffffffffffffffffffffffffffffffff1673ffffffffffffffffffffffffffffffffffffffff16815260200190815260200160002060006101000a81548160ff021916908315150217905550611343610cee565b73ffffffffffffffffffffffffffffffffffffffff168173ffffffffffffffffffffffffffffffffffffffff16837ff6391f5c32d9c69d2a47ea670b442974b53935d1edc7fd64eb21e047a839171b60405160405180910390a45b5050565b600073ffffffffffffffffffffffffffffffffffffffff168273ffffffffffffffffffffffffffffffffffffffff161415611412576040517f08c379a00000000000000000000000000000000000000000000000000000000081526004016114099061248d565b60405180910390fd5b61141e600083836116d9565b80600260008282546114309190611f10565b92505081905550806000808473ffffffffffffffffffffffffffffffffffffffff1673ffffffffffffffffffffffffffffffffffffffff16815260200190815260200160002060008282546114859190611f10565b925050819055508173ffffffffffffffffffffffffffffffffffffffff16600073ffffffffffffffffffffffffffffffffffffffff167fddf252ad1be2c89b69c2b068fc378daa952ba7f163c4a11628f55a4df523b3ef836040516114ea9190611b7d565b60405180910390a36114fe600083836116de565b5050565b600073ffffffffffffffffffffffffffffffffffffffff168273ffffffffffffffffffffffffffffffffffffffff161415611572576040517f08c379a00000000000000000000000000000000000000000000000000000000081526004016115699061251f565b60405180910390fd5b61157e826000836116d9565b60008060008473ffffffffffffffffffffffffffffffffffffffff1673ffffffffffffffffffffffffffffffffffffffff16815260200190815260200160002054905081811015611604576040517f08c379a00000000000000000000000000000000000000000000000000000000081526004016115fb906125b1565b60405180910390fd5b8181036000808573ffffffffffffffffffffffffffffffffffffffff1673ffffffffffffffffffffffffffffffffffffffff16815260200190815260200160002081905550816002600082825461165b91906125d1565b92505081905550600073ffffffffffffffffffffffffffffffffffffffff168373ffffffffffffffffffffffffffffffffffffffff167fddf252ad1be2c89b69c2b068fc378daa952ba7f163c4a11628f55a4df523b3ef846040516116c09190611b7d565b60405180910390a36116d4836000846116de565b505050565b505050565b505050565b6060600060028360026116f69190612605565b6117009190611f10565b67ffffffffffffffff8111156117195761171861265f565b5b6040519080825280601f01601f19166020018201604052801561174b5781602001600182028036833780820191505090505b5090507f3000000000000000000000000000000000000000000000000000000000000000816000815181106117835761178261268e565b5b60200101907effffffffffffffffffffffffffffffffffffffffffffffffffffffffffffff1916908160001a9053507f7800000000000000000000000000000000000000000000000000000000000000816001815181106117e7576117e661268e565b5b60200101907effffffffffffffffffffffffffffffffffffffffffffffffffffffffffffff1916908160001a905350600060018460026118279190612605565b6118319190611f10565b90505b60018111156118d1577f3031323334353637383961626364656600000000000000000000000000000000600f8616601081106118735761187261268e565b5b1a60f81b82828151811061188a5761188961268e565b5b60200101907effffffffffffffffffffffffffffffffffffffffffffffffffffffffffffff1916908160001a905350600485901c9450806118ca906126bd565b9050611834565b5060008414611915576040517f08c379a000000000000000000000000000000000000000000000000000000000815260040161190c90612733565b60405180910390fd5b8091505092915050565b600080fd5b60007fffffffff0000000000000000000000000000000000000000000000000000000082169050919050565b61195981611924565b811461196457600080fd5b50565b60008135905061197681611950565b92915050565b6000602082840312156119925761199161191f565b5b60006119a084828501611967565b91505092915050565b60008115159050919050565b6119be816119a9565b82525050565b60006020820190506119d960008301846119b5565b92915050565b600081519050919050565b600082825260208201905092915050565b60005b83811015611a195780820151818401526020810190506119fe565b83811115611a28576000848401525b50505050565b6000601f19601f8301169050919050565b6000611a4a826119df565b611a5481856119ea565b9350611a648185602086016119fb565b611a6d81611a2e565b840191505092915050565b60006020820190508181036000830152611a928184611a3f565b905092915050565b600073ffffffffffffffffffffffffffffffffffffffff82169050919050565b6000611ac582611a9a565b9050919050565b611ad581611aba565b8114611ae057600080fd5b50565b600081359050611af281611acc565b92915050565b6000819050919050565b611b0b81611af8565b8114611b1657600080fd5b50565b600081359050611b2881611b02565b92915050565b60008060408385031215611b4557611b4461191f565b5b6000611b5385828601611ae3565b9250506020611b6485828601611b19565b9150509250929050565b611b7781611af8565b82525050565b6000602082019050611b926000830184611b6e565b92915050565b600080600060608486031215611bb157611bb061191f565b5b6000611bbf86828701611ae3565b9350506020611bd086828701611ae3565b9250506040611be186828701611b19565b9150509250925092565b6000819050919050565b611bfe81611beb565b8114611c0957600080fd5b50565b600081359050611c1b81611bf5565b92915050565b600060208284031215611c3757611c3661191f565b5b6000611c4584828501611c0c565b91505092915050565b611c5781611beb565b82525050565b6000602082019050611c726000830184611c4e565b92915050565b60008060408385031215611c8f57611c8e61191f565b5b6000611c9d85828601611c0c565b9250506020611cae85828601611ae3565b9150509250929050565b600060ff82169050919050565b611cce81611cb8565b82525050565b6000602082019050611ce96000830184611cc5565b92915050565b600060208284031215611d0557611d0461191f565b5b6000611d1384828501611ae3565b91505092915050565b60008060408385031215611d3357611d3261191f565b5b6000611d4185828601611ae3565b9250506020611d5285828601611ae3565b9150509250929050565b7f4e487b7100000000000000000000000000000000000000000000000000000000600052602260045260246000fd5b60006002820490506001821680611da357607f821691505b60208210811415611db757611db6611d5c565b5b50919050565b7f45524332303a207472616e7366657220616d6f756e742065786365656473206160008201527f6c6c6f77616e6365000000000000000000000000000000000000000000000000602082015250565b6000611e196028836119ea565b9150611e2482611dbd565b604082019050919050565b60006020820190508181036000830152611e4881611e0c565b9050919050565b7f416363657373436f6e74726f6c3a2063616e206f6e6c792072656e6f756e636560008201527f20726f6c657320666f722073656c660000000000000000000000000000000000602082015250565b6000611eab602f836119ea565b9150611eb682611e4f565b604082019050919050565b60006020820190508181036000830152611eda81611e9e565b9050919050565b7f4e487b7100000000000000000000000000000000000000000000000000000000600052601160045260246000fd5b6000611f1b82611af8565b9150611f2683611af8565b9250827fffffffffffffffffffffffffffffffffffffffffffffffffffffffffffffffff03821115611f5b57611f5a611ee1565b5b828201905092915050565b600081905092915050565b7f41444d494e5f524f4c4500000000000000000000000000000000000000000000600082015250565b6000611fa7600a83611f66565b9150611fb282611f71565b600a82019050919050565b6000611fc882611f9a565b9150819050919050565b7f45524332303a2064656372656173656420616c6c6f77616e63652062656c6f7760008201527f207a65726f000000000000000000000000000000000000000000000000000000602082015250565b600061202e6025836119ea565b915061203982611fd2565b604082019050919050565b6000602082019050818103600083015261205d81612021565b9050919050565b7f45524332303a20617070726f76652066726f6d20746865207a65726f2061646460008201527f7265737300000000000000000000000000000000000000000000000000000000602082015250565b60006120c06024836119ea565b91506120cb82612064565b604082019050919050565b600060208201905081810360008301526120ef816120b3565b9050919050565b7f45524332303a20617070726f766520746f20746865207a65726f20616464726560008201527f7373000000000000000000000000000000000000000000000000000000000000602082015250565b60006121526022836119ea565b915061215d826120f6565b604082019050919050565b6000602082019050818103600083015261218181612145565b9050919050565b7f45524332303a207472616e736665722066726f6d20746865207a65726f20616460008201527f6472657373000000000000000000000000000000000000000000000000000000602082015250565b60006121e46025836119ea565b91506121ef82612188565b604082019050919050565b60006020820190508181036000830152612213816121d7565b9050919050565b7f45524332303a207472616e7366657220746f20746865207a65726f206164647260008201527f6573730000000000000000000000000000000000000000000000000000000000602082015250565b60006122766023836119ea565b91506122818261221a565b604082019050919050565b600060208201905081810360008301526122a581612269565b9050919050565b7f45524332303a207472616e7366657220616d6f756e742065786365656473206260008201527f616c616e63650000000000000000000000000000000000000000000000000000602082015250565b60006123086026836119ea565b9150612313826122ac565b604082019050919050565b60006020820190508181036000830152612337816122fb565b9050919050565b7f416363657373436f6e74726f6c3a206163636f756e7420000000000000000000600082015250565b6000612374601783611f66565b915061237f8261233e565b601782019050919050565b6000612395826119df565b61239f8185611f66565b93506123af8185602086016119fb565b80840191505092915050565b7f206973206d697373696e6720726f6c6520000000000000000000000000000000600082015250565b60006123f1601183611f66565b91506123fc826123bb565b601182019050919050565b600061241282612367565b915061241e828561238a565b9150612429826123e4565b9150612435828461238a565b91508190509392505050565b7f45524332303a206d696e7420746f20746865207a65726f206164647265737300600082015250565b6000612477601f836119ea565b915061248282612441565b602082019050919050565b600060208201905081810360008301526124a68161246a565b9050919050565b7f45524332303a206275726e2066726f6d20746865207a65726f2061646472657360008201527f7300000000000000000000000000000000000000000000000000000000000000602082015250565b60006125096021836119ea565b9150612514826124ad565b604082019050919050565b60006020820190508181036000830152612538816124fc565b9050919050565b7f45524332303a206275726e20616d6f756e7420657863656564732062616c616e60008201527f6365000000000000000000000000000000000000000000000000000000000000602082015250565b600061259b6022836119ea565b91506125a68261253f565b604082019050919050565b600060208201905081810360008301526125ca8161258e565b9050919050565b60006125dc82611af8565b91506125e783611af8565b9250828210156125fa576125f9611ee1565b5b828203905092915050565b600061261082611af8565b915061261b83611af8565b9250817fffffffffffffffffffffffffffffffffffffffffffffffffffffffffffffffff048311821515161561265457612653611ee1565b5b828202905092915050565b7f4e487b7100000000000000000000000000000000000000000000000000000000600052604160045260246000fd5b7f4e487b7100000000000000000000000000000000000000000000000000000000600052603260045260246000fd5b60006126c882611af8565b915060008214156126dc576126db611ee1565b5b600182039050919050565b7f537472696e67733a20686578206c656e67746820696e73756666696369656e74600082015250565b600061271d6020836119ea565b9150612728826126e7565b602082019050919050565b6000602082019050818103600083015261274c81612710565b905091905056fea26469706673582212200ff625853c27c945c0dee6d6cba8599d4755e07381c0b4cede6b98720811ffcd64736f6c63430008090033",
  "linkReferences": {},
  "deployedLinkReferences": {}
}